:100000000C94AE000C94D8000C94D8000C94D8003A
:100010000C94D8000C94D8000C94D8000C94D80000
:100020000C94D8000C94D8000C94D8000C94D800F0
:100030000C94D8000C94D8000C94D8000C94D800E0
:100040000C9496280C94D8000C94B22A0C94E82AAC
:100050000C94D8000C94D8000C94D8000C94D800C0
:100060000C94D8000C94D8000C94D8000C94D800B0
:100070000C94D8000C94D8000C94D8000C94D800A0
:100080000C94D8000C945B1F0C94D80034293429AC
:100090004529262929292D29302945294529382965
:1000A0003C2940290000000A0B0C00000000000061
:1000B0000104050600000000000000000000000030
:1000C0000000000000000000000000000000000030
:1000D00000000000000000000001020408102040A1
:1000E000800102040810204080081001020408105A
:1000F000204080010201020408102040800480405A
:1001000020100804020101020408102040800505A7
:1001100005050505050502020202020202020707A3
:10012000040404040404040407070303030303038F
:10013000030307010101010101010106060606068C
:1001400006060600003B003800350032002300623E
:10015000006500001E1C721E1C2BED1C11241FBE0E
:10016000CFEFD0E1DEBFCDBF13E0A0E0B1E0EAE128
:10017000FBE600E00BBF02C007900D92A03FB10765
:10018000D9F72BE0A0EFB3E001C01D92A532B20772
:10019000E1F710E0CDEAD0E004C02197FE010E9413
:1001A000E12FCA3AD107C9F70E942B2D0C94803554
:1001B0000C940000DC01FB0112968C911297808355
:1001C00013968C911397818314968C911497828344
:1001D00015968C911597838316968C911697848328
:1001E00017968C911797858318968C91189786830C
:1001F00019968C91878388E090E00895FC01DB01DB
:100200004C9150E060E070E04283538364837583D7
:1002100011968C911197582B428353836483758375
:1002200012968C911297682B428353836483758353
:1002300013968C911397782B428353836483758331
:1002400014964C91149750E060E070E04683578319
:100250006087718715968C911597582B4683578325
:100260006087718716968C911697682B4683578303
:100270006087718717968C91782B468357836087A8
:10028000718788E090E008958AE891E0089588E910
:1002900091E0089589EB91E0089582ED91E0089551
:1002A00083EF91E0089586E092E0089582EF92E076
:1002B000089587E292E0089588E492E0089588E541
:1002C00092E008950895FC0184859585089588E459
:1002D00092E0089588E592E0089508950895242F06
:1002E000DC01ED91FC910084F185E02D41E0099461
:1002F00080E090E00895FC01848995892789308DFC
:10030000821B930B0895EF92FF92CF93DF93FC0132
:10031000DB0160E070E0CB01E788F08CC489D5890F
:10032000EC16FD06A8F4621773078407950784F49A
:10033000C089D189CE0DDF1DC881CD936F5F7F4FFE
:100340008F4F9F4FC789D08D2196D08FC78BE4CF19
:10035000DF91CF91FF90EF900895FC012789308DB8
:10036000848995892817390740F480899189FC018F
:10037000E20FF31F808190E008958FEF9FEF0895C3
:10038000CF93DF93EC01E881F9810288F389E02DB6
:1003900009958F3F2FEF920731F02F89388D2F5F0E
:1003A0003F4F388F2F8BDF91CF910895FC01EA5793
:1003B000FB4F808108950C943C2DEF92FF920F9398
:1003C0001F93CF93DF9300D01F92CDB7DEB7FC0110
:1003D0007B836A836789708D6115710539F0848923
:1003E00095898617970728F4908F878B8FEF9FEF5B
:1003F00036C08A819B8161507109019629F4708F02
:10040000678B80E090E02BC08F01808991897C010F
:10041000E60EF71ECE0102960E94271D8983B701C2
:10042000CE0101960E941F1D882339F0F8018789AB
:10043000908D0197908F878B10C0F801878584FF7E
:10044000D5CF8789908D0197908F878B20893189AF
:10045000F901E80FF91F2A8120838A819B810F907F
:100460000F900F90DF91CF911F910F91FF90EF9020
:100470000895AF92BF92CF92DF92EF92FF920F93C7
:100480001F93CF93DF9300D000D01F92CDB7DEB77C
:100490008C016B01643671053CF0FC01EA57FB4F9F
:1004A0008081882309F478C0DA01ED91FC910190F4
:1004B000F081E02DB801615E7D4FCA010995780198
:1004C000B8EEEB1ABDEFFB0A2FEFF70120832EEFFA
:1004D0003196208331968083319690833196292FEF
:1004E000280F209520833196C082D801A25EBD4F8F
:1004F000DC9245E050E020E030E0BC016A5F7F4FD5
:100500006417750734F0A1912A0F311D4F5F5F4FBB
:10051000F7CF6C01F8E0CF0ED11C800F911FFC01CA
:10052000E15EFD4F2095208321E0C21622E0D20635
:10053000CCF45701C5018E199F098C159D0584F4D3
:10054000D80112968D919C911397F50161915F01ED
:10055000DC01ED91FC910190F081E02D0995EACF4D
:10056000C6011CC08AE293E09A83898383E08B836F
:1005700089E792E09D838C83D801ED91FC910190F5
:10058000F081E02DAE014F5F5F4F67E070E0C80182
:1005900009958FEF9FEF02C080E090E00F900F90E1
:1005A0000F900F900F90DF91CF911F910F91FF90BF
:1005B000EF90DF90CF90BF90AF9008950F931F936F
:1005C000CF93DF93EC01CB01088119817B836A8390
:1005D0000E943A2D9983888320E030E08C819D81B0
:1005E0002817390770F4E881F981E20FF31F30977B
:1005F00029F0D801A20FB31F8C9180832F5F3F4F4A
:10060000EDCFC801DF91CF911F910F910C943C2D3C
:10061000BD9ABE9ABF9A1EBC1DBC1CBC1BBC1ABC9A
:1006200019BC18BC109279001092780082E087BD46
:100630008AE986BD8AEA8FBD8AE18EBD0895139A44
:10064000149A159AEAE8F0E010821092890010924C
:1006500088001092870010928600109285001092F8
:10066000840082E0809381008AE9809380008AEA96
:1006700080938B008AE18083089587B3876087BB6E
:10068000C09AE1E6F0E080818F608083E2E6F0E0EE
:1006900080818F6080838DB183658DB908958FB916
:1006A000779BFECF8FB10895CF93C82FC295CC0F03
:1006B000CC0FC07C049714F486E001C087E00E9450
:1006C0004F038C2F0E944F03C82F8FEF0E944F03C0
:1006D000CF702C2F30E0322F2227A901482BCA01DE
:1006E000CF9108950F931F93CF93DF9302E610E00D
:1006F000F8019081C1E0D0E001C0CC0F8A95EAF703
:100700008C2F809598239083CB010E945403F8018D
:100710002081C22BC083DF91CF911F910F9108954B
:10072000CF92DF92EF92FF920F931F93FB01DC01B8
:1007300000E010E098016A01E12CF12C0C151D0578
:100740002E053F0538F461916D930F5F1F4F2F4FBA
:100750003F4FF4CF840F951F1F910F91FF90EF90A3
:10076000DF90CF9008958DEF94E00E94F023909356
:10077000C5048093C4040895829B07C081E090E083
:1007800090933104809330040895109231041092B4
:10079000300408950F931F93CF93DF9304EB14E07D
:1007A000C0E0D0E0BE0180E090E00E947203F8015A
:1007B000819391938F012196C830D10599F7DF91EC
:1007C000CF911F910F9108950F931F93CF93DF93B4
:1007D00000E814E0C0E0D0E0BE0181E090E00E94BB
:1007E0007203F801929382938F012196C830D1054C
:1007F00099F7DF91CF911F910F9108952F923F921A
:100800004F925F926F927F928F929F92AF92BF9220
:10081000CF92DF92EF92FF920F931F93CF93DF93CC
:1008200000D000D000D0CDB7DEB786E691E09E8341
:100830008D8386E4682E81E0782E90EA292E94E05C
:10084000392EE6E5F4E0FA83E98324EB822E24E0F6
:10085000922E33E0532E48EE442E9C828B82ED8103
:10086000FE81E080F18002811381F30120813181DA
:1008700042815381F40160817181072E000C880B45
:10088000990B1F921F925F924F92A12CB12C650180
:100890000E94742B0F900F900F900F9097FD3EC009
:1008A000ED81FE81E080F18002811381F3012081DE
:1008B000318142815381F40160817181072E000CE6
:1008C000880B990B1F921F925F924F920E94742B7C
:1008D0000F900F900F900F90693E73408105910526
:1008E00004F5ED81FE81E080F18002811381F30146
:1008F0002081318142815381F40160817181072E11
:10090000000C880B990B1F921F925F924F920E94CE
:10091000742B0F900F900F900F9005C060E070E067
:1009200002C068EE73E0E981FA8161937193FA8302
:10093000E983F2E08F0E911CEB81FC818081918133
:10094000813D974034F081E090E0F1019183808314
:1009500003C0F101118210828D819E8104969E83D5
:100960008D8394E0690E711CE2E02E0E311C8D81A6
:100970009E818658914009F070CF26960FB6F89464
:10098000DEBF0FBECDBFDF91CF911F910F91FF90C2
:10099000EF90DF90CF90BF90AF909F908F907F901F
:1009A0006F905F904F903F902F9008952F923F92BD
:1009B0004F925F926F927F928F929F92AF92BF926F
:1009C000CF92DF92EF92FF920F931F93CF93DF931B
:1009D00000D000D000D0CDB7DEB786E291E09E8394
:1009E0008D8386E0682E81E0782E90E9292E94E0B0
:1009F000392EE6E4F4E0FA83E98320E7822E24E04E
:100A0000922E33E0532E48EE442E9C828B82ED8151
:100A1000FE81E080F18002811381F3012081318128
:100A200042815381F40160817181072E000C880B93
:100A3000990B1F921F925F924F92A12CB12C6501CE
:100A40000E94742B0F900F900F900F9097FD3EC057
:100A5000ED81FE81E080F18002811381F30120812C
:100A6000318142815381F40160817181072E000C34
:100A7000880B990B1F921F925F924F920E94742BCA
:100A80000F900F900F900F90693E73408105910574
:100A900004F5ED81FE81E080F18002811381F30194
:100AA0002081318142815381F40160817181072E5F
:100AB000000C880B990B1F921F925F924F920E941D
:100AC000742B0F900F900F900F9005C060E070E0B6
:100AD00002C068EE73E0E981FA8161937193FA8351
:100AE000E983F2E08F0E911CEB81FC818081918182
:100AF0008D3D954034F081E090E0F1019183808359
:100B000003C0F101118210828D819E8104969E8323
:100B10008D8394E0690E711CE2E02E0E311C8D81F4
:100B20009E818654914009F070CF26960FB6F894B6
:100B3000DEBF0FBECDBFDF91CF911F910F91FF9010
:100B4000EF90DF90CF90BF90AF909F908F907F906D
:100B50006F905F904F903F902F9008952F923F920B
:100B60004F925F926F927F928F929F92AF92BF92BD
:100B7000CF92DF92EF92FF920F931F93CF93DF9369
:100B800000D000D0CDB7DEB780903E0490903F04F7
:100B9000A0904004B0904104C0903604D090370437
:100BA000E0903804F090390426E534E03A83298354
:100BB00000EA14E018011C821B82A981BA816D91A0
:100BC0007D91BA83A983072E000C880B990B0E9494
:100BD0005A2E2B013C01EB81FC81BF01FF0F880BDA
:100BE000990B0E945A2E9B01AC01C301B2010E94D5
:100BF0000F2F9B01AC01C501B4010E943F2D4B0199
:100C00005C01D1018D919D911D01019741F4A301DA
:100C10009201C701B6010E943F2D6B017C01EB815F
:100C2000FC813A96FC83EB83E035F10531F6809246
:100C30003E0490923F04A0924004B0924104C092BE
:100C40003604D0923704E0923804F092390420E060
:100C500030E0A901C701B6010E94AB2D882361F0E5
:100C6000A7019601C501B4010E94B02D0E94222E59
:100C700070936904609368048090420490904304E8
:100C8000A0904404B0904504C0903A04D0903B0436
:100C9000E0903C04F0903D0426E434E03A8329835C
:100CA00050E9252E54E0352E1C821B82A981BA8181
:100CB0006D917D91BA83A983072E000C880B990B47
:100CC0000E945A2E2B013C01EB81FC81BF01FF0FDA
:100CD000880B990B0E945A2E9B01AC01C301B201F3
:100CE0000E940F2F9B01AC01C501B4010E943F2D52
:100CF0004B015C01D1018D919D911D01019741F442
:100D0000A3019201C701B6010E943F2D6B017C0136
:100D1000EB81FC813A96FC83EB83E035F10531F6FB
:100D20008092420490924304A0924404B0924504FD
:100D3000C0923A04D0923B04E0923C04F0923D040D
:100D400020E030E0A901C701B6010E94AB2D882345
:100D500061F0A7019601C501B4010E94B02D0E9467
:100D6000222E70936B0460936A04809168049091C2
:100D700069042091860130918701821B930B909327
:100D80006704809366042091880130918901409125
:100D90006A0450916B04241B350B30936D0420932F
:100DA0006C04919581959109909335048093340456
:100DB00030933304209332048091A0049091A104D5
:100DC000892B09F0BCC08091A2049091A304892BC7
:100DD00009F0B5C08091A4049091A504892B09F075
:100DE000AEC08091A6049091A704892B09F0A7C0FA
:100DF0008091A8049091A904892B09F0A0C080914A
:100E0000AA049091AB04892B09F099C08091AC049D
:100E10009091AD04892B09F092C08091AE0490911D
:100E2000AF04892B09F08BC010922B0410922A0476
:100E300010926F0410926E0460912804709129043E
:100E4000072E000C880B990B1F921F921F9228E708
:100E5000922E9F923AE5A32EB12CC12CD12C1CEAE4
:100E6000E12E1DE0F12E00E010E020E030E0A901CD
:100E70000E94742B70932F0460932E0460912604BB
:100E800070912704072E000C880B990B1F921F925C
:100E90001F929F9220E030E0A9010E94742B709372
:100EA0002D0460932C0410923E0410923F04109283
:100EB0004004109241041092420410924304109294
:100EC0004404109245041092360410923704109294
:100ED00038041092390410923A0410923B04109294
:100EE0003C0410923D0480916604909167049093B5
:100EF000B3048093B20480916C0490916D0490933C
:100F0000B1048093B0040FB6F894DEBF0FBECDBF1E
:100F10000F900F900F900F90DF91CF911F910F9135
:100F2000FF90EF90DF90CF90BF90AF909F908F9009
:100F30007F906F905F904F903F902F900895E0E8E2
:100F4000F4E0D8018D919D918D0181939193B4E04E
:100F5000003B1B07B1F768CFCF92DF92EF92FF9271
:100F60000F931F93CF93DF93CDB7DEB72C970FB6B8
:100F7000F894DEBF0FBECDBF8C0161EB72E0CE01F5
:100F800007960E94242C64E4C8010E94D52C7C01A1
:100F900060E5C8010E94D52CA7014F5F5F4F9C01FF
:100FA000B801CE0101960E94D92CBE016F5F7F4F20
:100FB000CE0107960E94962CCE0101960E94B62B78
:100FC000CE0107960E941F2D8CE0E82E84E0F82EBB
:100FD000F7017183608360E5C8010E94D52C6C0124
:100FE00061E6C8010E94D52CA6014F5F5F4F9C01AE
:100FF000B801CE0101960E94D92CBE016F5F7F4FD0
:10100000CE0107960E94962CCE0101960E94B62B27
:10101000CE0107960E941F2DF7017187608761E658
:10102000C8010E94D52C6C0162E6C8010E94D52C33
:10103000A6014F5F5F4F9C01B801CE0101960E944F
:10104000D92CBE016F5F7F4FCE0107960E94962C70
:10105000CE0101960E94B62BCE0107960E941F2D4D
:10106000F7017387628762E6C8010E94D52C6C0184
:1010700063E6C8010E94D52CA6014F5F5F4F9C011B
:10108000B801CE0101960E94D92CBE016F5F7F4F3F
:10109000CE0107960E94962CCE0101960E94B62B97
:1010A000CE0107960E941F2DF7017587648763E6BE
:1010B000C8010E94D52C6C0164E6C8010E94D52CA1
:1010C000A6014F5F5F4F9C01B801CE0101960E94BF
:1010D000D92CBE016F5F7F4FCE0107960E94962CE0
:1010E000CE0101960E94B62BCE0107960E941F2DBD
:1010F000F7017787668764E6C8010E94D52C6C01EA
:101100006DE6C8010E94D52CA6014F5F5F4F9C0180
:10111000B801CE0101960E94D92CBE016F5F7F4FAE
:10112000CE0107960E94962CCE0101960E94B62B06
:10113000CE0107960E941F2DF701718F608FCE019F
:1011400007960E94B62B2C960FB6F894DEBF0FBE02
:10115000CDBFDF91CF911F910F91FF90EF90DF9066
:10116000CF9008956F927F928F929F92AF92BF928D
:10117000CF92DF92EF92FF920F931F93CF93DF9363
:10118000CDB7DEB72C970FB6F894DEBF0FBECDBF3C
:101190008C0161EB72E0CE0107960E94242CF801CD
:1011A00062817381CE0107960E94A22CBE01695F05
:1011B0007F4FCE0101960E948D2CCE0101960E9498
:1011C000AC07CE0101960E94B62BC0901404D090BB
:1011D0001504DBBCCABCE0901604F0901704F09232
:1011E0008500E09284000091180410911904109376
:1011F00087000093860060901A0470901B0479BCED
:1012000068BCE0910C04F0910D04CF0168EE73E02E
:101210000E948C2F4B0170931D0460931C04CF011E
:1012200064E670E00E948C2FCB012AE030E0B90127
:101230000E948C2F5C0190931F0480931E04CF01A9
:10124000B9010E948C2FFC01CB01B9010E948C2FA7
:101250009093210480932004F0932304E0932204CC
:101260008A94892819F4A898A99A02C0A89AA998DA
:10127000AA94AB2819F4AF9AAE9802C0AF98AE9A70
:101280008091200490912104019719F4AD9AAC98B3
:1012900002C0AD98AC9A80912204909123040197EA
:1012A00019F4AA98AB9A02C0AA9AAB98CD2871F407
:1012B000EF2861F4012B51F4672841F4AF9AAE9AFC
:1012C000AD9AAC9AAA9AAB9AA89AA99ACE01079617
:1012D0000E94B62B2C960FB6F894DEBF0FBECDBF82
:1012E000DF91CF911F910F91FF90EF90DF90CF9002
:1012F000BF90AF909F908F907F906F90089526E061
:1013000040E051EE60E070E084E89AE00E944D2AEF
:101310008BEB99E00E94E11D1ABA8FEF87BB88BB67
:10132000DD9A84BB81B3806C81BB82B3806C82BB4D
:1013300061E08DEF94E00E94F32584EF91E09093BB
:1013400000058093FF040E943D0340910D055091DC
:101350000E0560910F057091100526E080910B0538
:1013600090910C050E944D2A1092860910928509D1
:10137000109288091092870910928C0910928B099B
:1013800010928A0910928909E3E5F9E080E090E083
:1013900021913191232B81F4FC01EE0FFF1FED5AB7
:1013A000F64F2AEF33E0318320838C599F4F90937F
:1013B000FD038093FC0304C001968931910541F738
:1013C000E1E2F9E080E090E021913191232BB1F44A
:1013D000FC01EE0FFF1FEF5DF64F20EF33E031838E
:1013E000208383589F4F9093F5038093F40389E003
:1013F00095E09093F7038093F60304C0019689313A
:10140000910511F740E050E0BA018DEF94E00E94A1
:10141000A0230E9408030C941F03CF92DF92EF9247
:10142000FF9220E030E06A017B01022E04C0F694B6
:10143000E794D794C7940A94D2F7FC01C192CF01E4
:10144000285F3F4F2032310571F7FF90EF90DF901A
:10145000CF900895EF92FF920F931F93CF93DF9356
:101460007C018B01DC011296ED91FC911397EF0149
:1014700009900020E9F72197CE1BDF0BAE0160E059
:1014800070E0C8010E940D0AF70162817381AE010C
:10149000C80104960E945A32CE010496DF91CF9182
:1014A0001F910F91FF90EF9008954F925F926F926E
:1014B0007F92AF92BF92CF92DF92EF92FF920F9303
:1014C0001F93CF93DF93EC017B018A81FB01808323
:1014D0008B8181838C8182838D818383DB0117964D
:1014E00040E050E0BA01E4E0F0E04A805B806C80CC
:1014F0007D808F010C5F1F4F4415550566057705EC
:10150000C0F48A859B85E80FF91F3497D08021812C
:1015100092818381FD013397D08231962083319669
:1015200090838C93F8014F5F5F4F6F4F7F4F1496FE
:10153000DCCFEE0DFF1D8C8580838D8581838E85AC
:1015400082838F85838380E090E040E050E0BA01A1
:101550004C845D846E847F84F701E00FF11F0C5F83
:101560001F4F4415550566057705B8F4AC89BD894C
:10157000A80FB91FCC901196DC90119712963C9150
:10158000129713962C91C082D182328323834F5FAE
:101590005F4F6F4F7F4F0496DBCF8E8980838F899B
:1015A0008183888D8283898D8383412C512C3201E4
:1015B0008E899F89A88DB98D481659066A067B06C3
:1015C00080F55201AA0CBB1CEC8DFD8DEA0DFB1DB4
:1015D000A081B181FD0101900020E9F731976F01F1
:1015E000CA1ADB0AA60160E070E0C701800F911FF4
:1015F0000E940D0A0C5F1F4F8C8D9D8DFC01EA0D22
:10160000FB1D60817181A601C701800F911F0E949F
:101610005A320C0D1D1DFFEF4F1A5F0A6F0A7F0A29
:10162000C7CFC801DF91CF911F910F91FF90EF902D
:10163000DF90CF90BF90AF907F906F905F904F9072
:101640000895EF92FF920F931F93CF93DF938C0136
:101650007B01EC018A81FB018193AB81BC81ED01AF
:1016600009900020E9F72197CA1BDB0BAE0160E06F
:1016700070E0CF010E940D0AF80163817481AE0110
:10168000C70105960E945A32CE010596DF91CF918F
:101690001F910F91FF90EF900895CF92DF92EF92FC
:1016A000FF920F931F93CF93DF936C01EB01FC012B
:1016B0008281888383818983A481B581FD01019022
:1016C0000020E9F731978F010A1B1B0BA80160E08E
:1016D00070E0CE0102960E940D0AF60164817581C8
:1016E000A801CE0106960E945A32C8010696F6015C
:1016F000A681B781FD0101900020E9F731977F01B4
:10170000EA1AFB0AA70160E070E08C0F9D1F0E949F
:101710000D0A065F1F4FF60166817781A701CE0192
:10172000800F911F0E945A320E0D1F1DF601A085D9
:10173000B185FD0101900020E9F731977F01EA1A98
:10174000FB0AA70160E070E0CE01800F911F0E94AC
:101750000D0A0C5F1F4FF60160857185A701CE0150
:10176000800F911F0E945A32C8018E0D9F1DF601F5
:101770006285438534852585C80FD91F68834983D1
:101780003A832B830496DF91CF911F910F91FF90A5
:10179000EF90DF90CF900895CF92DF92EF92FF927B
:1017A000FC011082118212821382DB0120E030E002
:1017B0004D9150E0022E02C0440F551F0A94E2F7EB
:1017C000052E000C660B770BC080D180E280F38081
:1017D0004C295D296E297F2940835183628373835D
:1017E000285F3F4F2032310519F7FF90EF90DF90CF
:1017F000CF9008958F929F92AF92BF92CF92DF9237
:10180000EF92FF920F931F93CF93DF9300D000D0FE
:10181000CDB7DEB77C018B01FB018191BF01F701E0
:101820008283CE0101960E94CC0B89819A81AB8183
:10183000BC814C015D01F5E08F0E911CA11CB11C17
:10184000680125E0C20ED11CA601401B510B60E0CF
:1018500070E0481559056A057B0548F4F601419189
:101860006F019F0122503109F9014083EDCFF8014A
:10187000E80FF91F14820C5F1F4FF70114830383D5
:1018800005960F900F900F900F90DF91CF911F91C1
:101890000F91FF90EF90DF90CF90BF90AF909F900F
:1018A0008F9008958F929F92AF92BF92CF92DF92C6
:1018B000EF92FF920F931F93CF93DF9300D000D04E
:1018C000CDB7DEB77C018B01CE0101960E94CC0B17
:1018D00089819A81AB81BC814C015D0124E0820E3B
:1018E000911CA11CB11C6801E4E0CE0ED11CA60124
:1018F000401B510B60E070E0481559056A057B05F7
:1019000048F4F60141916F019F0122503109F9011C
:101910004083EDCFF801E80FF91F13820D5F1F4FD1
:10192000F7011383028304960F900F900F900F908E
:10193000DF91CF911F910F91FF90EF90DF90CF90AB
:10194000BF90AF909F908F9008950F931F93CF9368
:10195000DF938C01EC012696CE010E94520CD80137
:101960001A96ED91FC911B97CE01DF91CF911F91BB
:101970000F9109944F925F926F927F928F929F92F4
:10198000AF92BF92CF92DF92EF92FF920F931F938D
:10199000CF93DF93CDB7DEB72C970FB6F894DEBFA9
:1019A0000FBECDBF7C018B01DB018C9190E0F70174
:1019B0009383828311962C91922B938382836E5F03
:1019C0007F4FCE0109960E94CC0B89849A84AB8408
:1019D000BC84B501A4014A5F5F4F6F4F7F4FF80190
:1019E0003696CF01801B910BA0E0B0E084179507DD
:1019F000A607B70728F48191DF0112978C93F1CFE6
:101A0000F801E80DF91D1582C8010596D701159654
:101A10009C938E931497B4016A5F7F4F600F711F80
:101A2000CE0105960E94CC0BBAE08B0E911C4D8125
:101A30005E816F8178852401092C000C6608770887
:101A4000440E551E661E771EF801E80DF91DCF01E4
:101A5000801B910BA0E0B0E084159505A605B705A5
:101A600028F48191DF0112978C93F1CF6401C40EA9
:101A7000D51EB8016C0D7D1DFB0131971082C4018C
:101A80000197800F911FF70197838683CE010196FE
:101A90000E94CC0BA6014C5F5F4F49805A806B803F
:101AA0007C804A01052E000CAA08BB08840C951CFA
:101AB000A61CB71CF801E40FF51F9F01201B310B7A
:101AC000C901A0E0B0E088159905AA05BB0528F476
:101AD0008191DF0112978C93F0CFCA01840D951D7F
:101AE000F801E80FF91FDF0111971C929A012150AC
:101AF0003109020F131FD70119961C930E931897E3
:101B00002181428150E060E070E0BA01552744270E
:101B1000522B2081422B2381722BF701428753875E
:101B20006487758704962C960FB6F894DEBF0FBEB7
:101B3000CDBFDF91CF911F910F91FF90EF90DF907C
:101B4000CF90BF90AF909F908F907F906F905F905D
:101B50004F9008952F923F924F925F926F927F9293
:101B60008F929F92AF92BF92CF92DF92EF92FF92AD
:101B70000F931F93CF93DF93CDB7DEB728970FB6A0
:101B8000F894DEBF0FBECDBF8C015B01DB018C91F1
:101B900011969C9111971296CC901297D12CE12C12
:101BA000F12C7601DD24CC24D92AC82A13968C91F5
:101BB000F82AF80182819381A481B5818C159D0555
:101BC000AE05BF0570F4B601660F771F660F771F6D
:101BD000828593850E944531D8011B969C938E93F4
:101BE0001A97F801C282D382E482F582D501179652
:101BF000C12CD12C7601F4E08F2E912C98012A5F14
:101C00003F4FF8014281538164817581C40104967C
:101C1000C416D506E606F70680F54C9150E060E064
:101C200070E0742F662755274427FD013397E08124
:101C30004E2BFD013297E0815E2BFD013197E08153
:101C40006E2BF80146835783608771874C01089794
:101C500042855385840F951FF9014081518162812E
:101C60007381FC014083518362837383FFEFCF1A3A
:101C7000DF0AEF0AFF0A1496C4CFF401EA0DFB1D38
:101C800020813181C280D12CE12CF12C7601DD2420
:101C9000CC24D32AC22A2381F22A4C01F80184855C
:101CA0009585A685B7858C159D05AE05BF0570F495
:101CB000B601660F771F660F771F848995890E948A
:101CC0004531D80155969C938E935497F801C4865C
:101CD000D586E686F78620E030E0C12CD12C76014F
:101CE000D8015096F8014485558566857785F501BC
:101CF000E80DF91DC4010496C416D506E606F706DC
:101D000048F59180428150E060E070E0BA015527CB
:101D10004427592990804929E3817E2BF801408B83
:101D2000518B628B738B4C0184899589FC01E20F86
:101D3000F31F4D915D916D917C9113974083518379
:101D400062837383FFEFCF1ADF0AEF0AFF0A2C5F6B
:101D50003F4FC8CF20813181C280D12CE12CF12CA2
:101D60007601DD24CC24D32AC22A2381F22A4C0115
:101D7000F80186899789A08DB18D8C159D05AE05DA
:101D8000BF0560F4B601660F771F848D958D0E94A4
:101D90004531D8015D969C938E935C97F801C68A75
:101DA000D78AE08EF18E412C512C32011801FAE1D4
:101DB0002F0E311CF80186899789A08DB18D4816A8
:101DC00059066A067B0608F05AC0B501680D791DF0
:101DD000CE0101960E94CC0B94012C5F3F4FC9802D
:101DE000DA80EB80FC80C901032E000CAA0BBB0B30
:101DF000AC01BD014C0D5D1D6E1D7F1D4D835E83CD
:101E00006F837887F501E20FF31FAF014A195B0971
:101E1000CA01A0E0B0E04D815E816F8178858417B2
:101E20009507A607B70728F44191DF0112974C9355
:101E3000ECCFC9018C0D9D1DF501E80FF91F3197FD
:101E40001082215031092A0D3B1DD8015B963C932D
:101E50002E935A974C01C201880F991F5C96ED9101
:101E6000FC915D97E80FF91FD1018D919C919183B1
:101E70008083BFEF4B1A5B0A6B0A7B0A9BCFC401BE
:101E800028960FB6F894DEBF0FBECDBFDF91CF917D
:101E90001F910F91FF90EF90DF90CF90BF90AF9088
:101EA0009F908F907F906F905F904F903F902F907A
:101EB0000895FC01808191810C943C2D28E733E04A
:101EC000FC013183208340960C94590FCF93DF930C
:101ED000EC010E945E0FCE01DF91CF910C943C2D5E
:101EE000DB012D913C911197FC0131832083F90195
:101EF000369720813181FC01E20FF31F12968D91FC
:101F00009C9113979183808381E290E094838383F3
:101F1000548B438B1582158A0895FC0181E290E071
:101F20009683858317821086118686E090E0A0E074
:101F3000B0E082879387A487B58716861786108AB4
:101F4000118A80E2828B148A138A768B658B178ABA
:101F500086E693E09183808380E793E09383828396
:101F600008956115710521F4DA012D913C9102C0AB
:101F700026E633E0FC01318320836115710529F4E5
:101F8000F90136972081318102C022E030E0FC0166
:101F9000E20FF31F6115710531F4DA0112964D91CC
:101FA0005C91139702C040E753E05183408360FD8A
:101FB0000C943C2D089540E050E062E070E00C94F9
:101FC000B10FDC01ED91FC91369720813181820FB8
:101FD000931F0C94DB0FCF93DF93EC010E94DB0F78
:101FE000CE01DF91CF910C943C2DDC01ED91FC9161
:101FF000369720813181820F931F0C94EB0FAB0138
:1020000060E070E00C94B10FEF92FF920F931F937A
:10201000CF93DF938C017B01EA01672B19F4888150
:10202000998102C086EB93E0F80191838083E114EB
:10203000F10429F4FC0136978081918102C08DE181
:1020400090E0F801E80FF91FE114F10419F42E8172
:102050003F8102C020EC33E031832083C801029627
:102060000E945E0FE114F10421F4BE016E5F7F4F08
:1020700002C06AEA73E0C8010E94FF0FE0FE09C0D7
:10208000C801DF91CF911F910F91FF90EF900C94B9
:102090003C2DDF91CF911F910F91FF90EF9008950C
:1020A000AB0160E070E00C94041040E050E062E0AE
:1020B00070E00C940410DC01ED91FC9136972081C6
:1020C0003181820F931F0C945510CF93DF93EC0155
:1020D0000E945510CE01DF91CF910C943C2DDC0174
:1020E000ED91FC91369720813181820F931F0C94E2
:1020F00065100F931F93CF93DF93CDB7DEB72A9769
:102100000FB6F894DEBF0FBECDBF8C0182E193E025
:102110009A8389831B821C821D821E821F821886DD
:1021200019861A86D801ED91FC910190F081E02D7D
:10213000AE014F5F5F4F6AE070E0C80109950E94F1
:10214000E028F80160877187828793872A960FB607
:10215000F894DEBF0FBECDBFDF91CF911F910F91DD
:1021600008954F925F926F927F92AF92BF92CF92FB
:10217000DF92EF92FF920F931F93CF93DF93CDB730
:10218000DEB72E970FB6F894DEBF0FBECDBF8C0121
:102190008EE193E09A8389831C821B8281EB92E01B
:1021A0009E838D8398878F839A8789871B861C8659
:1021B0001D861E86680188EEC81A8BEFD80A780142
:1021C000A6EBEA1AABEFFA0A412C92E0592E612CE9
:1021D000712CD601ED91FC913097B9F184819581F4
:1021E0009C838B83808191819E838D838281938167
:1021F000DC01ED91FC910480F581E02D0995988733
:102200008F83D601ED91FC9182819381DC01ED9168
:10221000FC910680F781E02D09959A8789874B8686
:102220005C866D867E86F80180819181F601A081B1
:10223000B18118966D917C911997DC01ED91FC911B
:10224000AE014F5F5F4FC8010995B2E0CB0ED11CC4
:10225000CE14DF0409F0BDCF6801E4E8CE1AEBEF3D
:10226000DE0A412C82E0582E612C712CF701A081EE
:10227000B1811097E1F112968D919C9113979C83F7
:102280008B8314968D919C9115979E838D83ED91F0
:10229000FC9111970480F581E02DCD010995988777
:1022A0008F83D7018D919C91DC01ED91FC9106808B
:1022B000F781E02D09959A8789874B865C866D8624
:1022C0007E86D801ED91FC91A080B180F7018081DC
:1022D0009181DC01ED91FC910280F381E02D099563
:1022E000AE014F5F5F4FBC01C801F5010995F2E0F7
:1022F000EF0EF11CEC14FD0409F0B8CFF801EA5719
:10230000FB4F81E080832E960FB6F894DEBF0FBEA0
:10231000CDBFDF91CF911F910F91FF90EF90DF9094
:10232000CF90BF90AF907F906F905F904F90089547
:102330008F929F92AF92BF92CF92DF92EF92FF92D5
:102340000F931F93CF93DF93CDB7DEB72A970FB6C6
:10235000F894DEBF0FBECDBF8C015B0182E193E03C
:102360009A8389831B821C821D821E821F8218868B
:1023700019861A860E94E028F801C084D184E2847C
:10238000F3849B01AC012C193D094E095F096901D9
:102390007A01B501CE0101960E94FE0088EE882EDA
:1023A00083E0982EA12CB12CC701B601A5019401A0
:1023B0000E94A02FCB80DC80ED80FE80C20ED31E59
:1023C000E41EF51ECB82DC82ED82FE829B01AC0115
:1023D00060E472E48FE090E00E947C2FCF80D8848C
:1023E000E984FA84DC01CB018C0D9D1DAE1DBF1D5F
:1023F0008F839887A987BA870E94E028CB80DC80EA
:10240000ED80FE8031E0C31AD108E108F108A50192
:1024100094010E94A02FC21AD30AE40AF50AF80117
:10242000C486D586E686F786CF80D884E984FA8488
:10243000F6E3DF1AF5E6EF0AF4ECFF0A9B01AC01C4
:1024400060E472E48FE090E00E947C2FC61AD70A05
:10245000E80AF90AF801C08AD18AE28AF38AB80147
:10246000605F7F4FC8010C960E94F11C0E94E0281B
:10247000F801E557FB4F60837183828393832A962B
:102480000FB6F894DEBF0FBECDBFDF91CF911F9185
:102490000F91FF90EF90DF90CF90BF90AF909F9003
:1024A0008F9008952F923F924F925F926F927F92FA
:1024B0008F929F92AF92BF92CF92DF92EF92FF9254
:1024C0000F931F93CF93DF93CDB7DEB760970FB60F
:1024D000F894DEBF0FBECDBF988B8F870E94E02897
:1024E0004B015C012F85388925573B4F3E832D8357
:1024F000F90180819181A281B381A5019401281BFA
:10250000390B4A0B5B0BDA01C901893F9A42A105DD
:10251000B10528F0EF85F889EA57FB4F10820F8547
:10252000188904581B4FD8018D919C91892B81F0FB
:10253000EF85F889E157FB4F80819181A281B381BA
:1025400088159905AA05BB0518F4F80111821082B7
:102550006F847888FCE76F1AFBEF7F0A2F85388934
:1025600020583B4F3A832983CF84D88838E1C30E63
:10257000D11C4F8558894A575B4F58874F832F8509
:1025800038892C563B4F3A8729874F8558894D56B5
:102590005B4F5C874B87EF84F88852E8E51A5BEF66
:1025A000F50A2F8538892E573B4F3C832B834F8567
:1025B000588941575B4F5E874D871401250154E1CF
:1025C000250E311C411C511CEF85F88984899589A1
:1025D000A689B789892B8A2B8B2B89F4AF85B8897B
:1025E00012968D919C911397DC01ED91FC910680E0
:1025F000F781E02D09959C0197FF15C037C10E9416
:10260000E028DC01CB0188199909AA09BB09EF85EB
:10261000F8892489358946895789281739074A074F
:102620005B07E0F64BC1D3018D919C911197820F0E
:10263000931F8D939C93F801408151814730510540
:10264000D9F4AB81BC818D919C911197AC014F5F06
:102650005F4F4D935C93EF85F889E80FF91F208F4A
:10266000F70180819181019791838083892B09F003
:10267000ABCF88E090E02FC04115510521F52F3FE9
:10268000310569F481E090E0F80191838083AD85A4
:10269000BE852D923D924D925C92139795CF0E94EC
:1026A000E028DC01CB0188199909AA09BB098938FE
:1026B0009341A105B10508F487CFEF85F889EA5762
:1026C000FB4F1082FBC041305105B1F42E3F310564
:1026D00031F482E090E0D8018D939C9375CFF8019E
:1026E00011821082AF81B8858C9181116DCF8F8559
:1026F00098890E94791068CF4230510569F4F7013A
:1027000031832083AB81BC811D921C9283E090E0D9
:10271000F801918380832EC04330510561F4322F3C
:102720002227F70180819181280F391F318320836F
:1027300084E090E0D0CF4430510581F460E071E056
:102740000E948C2F8F3F910531F485E090E0F801D5
:102750009183808339CF1182108236CF4530510565
:1027600069F4E981FA8131832083E6E0F0E0D80161
:10277000ED93FC93D3012D933C9326CF4630510526
:1027800099F4322F2227E981FA8180819181280FE3
:10279000391F31832083E7E0F0E0D801ED93FC930B
:1027A000D7018D919C9162CF4830510509F00CCF33
:1027B000F8011182108260E071E00E948C2F8F3F3F
:1027C000910509F001CFA981BA818D919C91009763
:1027D000C9F48F8598890E9479108F8598890E9405
:1027E000B110EF85F889E957FB4F80829182A28270
:1027F000B382ED81FE8180829182A282B3828FEFCB
:102800009FEF61C08A30910531F4B6018F859889B8
:102810000E949811D9CE8630910551F4B601898570
:102820009A850E94AA0D81E0AB85BC858C93CCCEA5
:102830008B30910521F4EF81F8851082C5CEFC0123
:10284000EF53FE4FEE0FFF1F2F853889E20FF31F66
:1028500080819181009709F4B7CEDC01ED91FC9164
:102860000190F081E02DB6010995AECEEF85F88993
:10287000EA57FB4F8081882321F10F85188909577A
:102880001B4FF80180819181A281B381A501940140
:10289000281B390B4A0B5B0BDA01C901853C9940B7
:1028A000A105B10570F08F8598890E947910D80133
:1028B0008D929D92AD92BC92139703C08EEF9FEFC5
:1028C00002C080E090E060960FB6F894DEBF0FBEC5
:1028D000CDBFDF91CF911F910F91FF90EF90DF90CF
:1028E000CF90BF90AF909F908F907F906F905F90B0
:1028F0004F903F902F900895EF92FF920F931F9368
:10290000CF93DF93EC018C819D818617970710F59B
:102910007A018B018A819B818617970740F4685F53
:102920007F4F8617970718F4CE010E94DE028C8134
:102930009D818017910758F4E881F981E80FF91F0C
:10294000309719F0D7012C9120830196F2CF1D8387
:102950000C8305C06817790710F47D836C83DF91C1
:10296000CF911F910F91FF90EF900895AF92BF927A
:10297000CF92DF92EF92FF920F931F93CF93DF934B
:102980001F92CDB7DEB78C016B01FC011182108262
:1029900088E090E093838283158214820E943A2D0E
:1029A000F80191838083C114D104F1F0F601019004
:1029B0000020E9F731977F01EC18FD08F801A480A9
:1029C000B5801982B7016A0D7B1DAE014F5F5F4F65
:1029D000C8010E947C14F80180819181A701B60191
:1029E0008A0D9B1D0E9490030F90DF91CF911F9144
:1029F0000F91FF90EF90DF90CF90BF90AF90089530
:102A0000EF92FF920F931F93CF93DF931F92CDB757
:102A1000DEB7FC01922F9870822F807128712831C7
:102A200019F44230A9F43BC0413011F48B0116C0B7
:102A3000423081F4882329F004891589060F171F75
:102A400002C000E010E0992349F00789108D04C00E
:102A5000413061F304891589060F171F24893589D0
:102A600020173107E0F0992311F0108F078B88238E
:102A7000A1F07F011982AE014F5F5F4FB801CF0116
:102A800040960E947C14F701848995892789308DAE
:102A90008217930710F4908F878BC80102C08FEFC5
:102AA0009FEF0F90DF91CF911F910F91FF90EF90CB
:102AB0000895AF92BF92CF92DF92EF92FF920F9361
:102AC0001F93CF93DF931F92CDB7DEB78C016B01BD
:102AD0007A015901FC011182108288E090E0938311
:102AE0008283158214820E943A2DF801918380839B
:102AF000F601848195818E159F0520F480E090E099
:102B00000E94321DF601848195811982BC016E19E3
:102B10007F09A616B70608F4B501AE014F5F5F4FF7
:102B2000C8010E947C14F80144815581F60160813E
:102B300071816E0D7F1DF801808191810E9490034B
:102B40000F90DF91CF911F910F91FF90EF90DF9049
:102B5000CF90BF90AF900895BF92CF92DF92EF9247
:102B6000FF920F931F93CF93DF931F92CDB7DEB7E2
:102B70007C018B016A01B22EAC014E5F5F4F6E5F2C
:102B80007F4F0E94700FF80180819181F70191833E
:102B90008083F80126813781FC0136970190F0810E
:102BA000E02DEE0DFF1D31832083F7011682158283
:102BB000108617821286118614861386168615864D
:102BC000108A1786118A88E793E0938382838E01A7
:102BD0000F5F1F4F2FEF3FEF40E050E0B601C701FE
:102BE00042960E945915F701128E118E148E138E83
:102BF000B1FE04C086899789948F838FF701B18ACB
:102C00000F90DF91CF911F910F91FF90EF90DF9088
:102C1000CF90BF900895AF92BF92DF92EF92FF9254
:102C20000F931F93CF93DF931F92CDB7DEB77C0135
:102C30005B01D42EAC014E5F5F4F81E290E0F70163
:102C400091A380A312A213A214A286E090E0A0E0B8
:102C5000B0E085A396A3A7A3B0A711A612A613A6BA
:102C600014A68EE493E0968F858F80E285A717A641
:102C700016A651AB40AB12AA6AEA73E0C7010E94E4
:102C8000700F86EB93E0F7019183808380EC93E0F3
:102C9000968F858F1682158210861782128611866E
:102CA0001486138616861586108A1786118A88E779
:102CB00093E0938382838E010F5F1F4F2FEF3FEFCF
:102CC00040E050E0B501C70142960E945915F70156
:102CD000128E118E148E138ED1FE04C086899789B0
:102CE000948F838FF701D18A0F90DF91CF911F913D
:102CF0000F91FF90EF90DF90BF90AF900895CF922B
:102D0000DF92EF92FF920F931F93CF93DF931F9267
:102D1000CDB7DEB78C017B01FC01C480D580FB01FF
:102D2000648175816C0D7D1D1982AE014F5F5F4F0F
:102D30000E947C14F7014481558160817181F80102
:102D4000808191818C0D9D1D0E949003C8010F9080
:102D5000DF91CF911F910F91FF90EF90DF90CF9077
:102D60000895AF92BF92CF92DF92EF92FF920F93AE
:102D70001F93CF93DF931F92CDB7DEB77C016B011A
:102D8000FB0101900020E9F731978F01061B170B1B
:102D9000FC01A480B5801982B8016A0D7B1DAE01CB
:102DA0004F5F5F4F0E947C14F70180819181A801E1
:102DB000B6018A0D9B1D0E949003C7010F90DF9101
:102DC000CF911F910F91FF90EF90DF90CF90BF9028
:102DD000AF900895EF92FF920F931F93CF93DF93DD
:102DE0001F92CDB7DEB78C017B016F3F7F4F19F487
:102DF00080E090E028C0F801878584FF22C0F801B8
:102E0000818D928D648975898617970758F0E982BC
:102E10006F5F7F4FAE014F5F5F4FC80140960E94CA
:102E20007C1407C0F80120893189F901E80FF91FE6
:102E3000E082F801818D928D0196928F818FC7017A
:102E400002C08FEF9FEF0F90DF91CF911F910F91F5
:102E5000FF90EF9008952F923F924F925F926F9262
:102E60007F928F929F92AF92BF92CF92DF92EF921A
:102E7000FF920F931F93CF93DF93CDB7DEB72C97BD
:102E80000FB6F894DEBF0FBECDBF8C017B012901C8
:102E90003A015901FC01C18CD28C1A82198288E056
:102EA00090E09C838B831E821D820E943A2D9A8320
:102EB0008983FFEF4F165F0621F480E090E00E94C7
:102EC000321DE114F10481F01A86AE01465F5F4FB6
:102ED000B201CE0101960E947C144D815E81B70142
:102EE00089819A810E949003F801848995898C15C3
:102EF0009D0520F480E090E00E94321DF801848955
:102F000095899C012C193D0972012A153B0508F48D
:102F10007901AD80BE808E199F099501209530956D
:102F20008217930720F080E090E00E94341DF801A2
:102F30002488358841018A0C9B1CC80140969C87D7
:102F40008B87EA14FB0448F41886AE01485F5F4F94
:102F5000B4016E197F090E947C14F801808991895F
:102F6000A1014C195D094E195F09B7016C0D7D1D5A
:102F7000680F791F95012C0D3D1D820F931F0E9434
:102F8000633269817A81F80180899189A5018C0D6C
:102F90009D1D0E9490031986B4016E197F09AE0130
:102FA000475F5F4F8B859C850E947C14CE01019604
:102FB0000E94590FF801818D928D840D951D928F7D
:102FC000818FC301B2012C960FB6F894DEBF0FBEFD
:102FD000CDBFDF91CF911F910F91FF90EF90DF90C8
:102FE000CF90BF90AF909F908F907F906F905F90A9
:102FF0004F903F902F900895FC019581692B838914
:103000009489892B09F4616065830895CF93DF93D8
:10301000EC01E881F98136970190F081E02DE80F0D
:10302000F91F83899489DC01ED91FC910484F58575
:10303000E02D0995019651F4E881F9813697808158
:10304000918161E08C0F9D1F0E94FC17CE01DF91E2
:10305000CF9108951F93CF93DF93EC01162F8F85A7
:1030600080FF0BC0E881F9810084F185E02D20E12B
:1030700044E060E070E0CE010995EB85FC852D858C
:103080003E85812F90E0E217F30758F410832B85DB
:103090003C852F5F3F4F3C872B87DF91CF911F915E
:1030A0000895E881F981028CF38DE02DBC01CE01F9
:1030B000DF91CF911F910994CF93DF93EC01E881C9
:1030C000F98136970190F081E02DE80FF91F83898F
:1030D00094890E942A18019651F4E881F981369763
:1030E0008081918162E08C0F9D1F0E94FC17CE01B0
:1030F000DF91CF9108952F923F924F925F926F92FE
:103100007F928F929F92AF92BF92CF92DF92EF9277
:10311000FF920F931F93CF93DF93EC013B01490183
:103120005A01E881F98136970190F081E02D3296BD
:10313000E80FF91FC284D384E484F584C21AD30A49
:10314000E40AF50A818192818E709927049721F50E
:1031500016012701121413041404150494F421E039
:10316000221A310841085108E881F9813697019007
:10317000F081E02DEC0FFD1F6089CE010E945C18EC
:10318000E9CFD701C601F7FE03C080E090E0DC0183
:10319000C81AD90AEA0AFB0AE881F9813697019030
:1031A000F081E02DEC0FFD1F03891489D8011F96D3
:1031B0008C911F9780FF0BC0ED91FC910084F185ED
:1031C000E02D20E144E060E070E0C8010995D801FD
:1031D000ED91FC91008CF18DE02DA5019401B301DE
:1031E000C80109956F3F7F4F09F444C0E881F98118
:1031F00036970190F081E02DEC0FFD1F83819481C3
:103200008E7099270297F9F0E881F98136978081CD
:103210009181029640E050E0BA018C0F9D1FDF9132
:10322000CF911F910F91FF90EF90DF90CF90BF90C3
:10323000AF909F908F907F906F905F904F903F9056
:103240002F900C94361D1C141D041E041F04E4F65C
:10325000E1E0CE1AD108E108F108E881F98136975A
:103260000190F081E02DEC0FFD1F6089CE010E94DE
:103270005C18E9CFE881F98136978081918162E01D
:103280008C0F9D1F0E94FC17B1CFEF92FF920F93FE
:103290001F93CF93DF93CDB7DEB764970FB6F89443
:1032A000DEBF0FBECDBF8C01DC01ED91FC913697E6
:1032B0000190F081E02DE80FF91F8381948185FD55
:1032C00018C086FF05C092FD17C026EB32E01FC074
:1032D00087FF15C09C012227307292FF05C0232B67
:1032E00089F423EC32E013C0232B79F42DEC32E087
:1032F0000EC022EB32E00BC02EEB32E008C020E023
:1033000030E005C028EC32E002C02AEB32E07F93C7
:103310006F935F934F933F932F931F9284E18F930B
:103320009E012F5F3F4F79013F932F930E949C3264
:103330009C01990F440B550BB701C8010E947B18E3
:10334000D801ED91FC9136970190F081E02DE00FCE
:10335000F11F838194810FB6F894DEBF0FBECDBFFD
:1033600096FF03C0C8010E94061864960FB6F89431
:10337000DEBF0FBECDBFDF91CF911F910F91FF90A8
:10338000EF900895EF92FF920F931F93CF93DF93E7
:10339000CDB7DEB7EB970FB6F894DEBF0FBECDBF4B
:1033A0007C018B01AE01455C5F4F61EB72E0CE01A9
:1033B000C4960E94B61440E1BE016C5C7F4FCE0102
:1033C00001960E940B16CE01C4960E94590FE98106
:1033D000FA8136970190F081E02D81E090E08C0F2A
:1033E0009D1FE80FF91F81899289009711F00E94B3
:1033F0000618A801110F660B770BCE0101960E94EB
:1034000045198E010C5C1F4F2FEF3FEF40E050E05D
:10341000BE016D5E7F4FC7010E945915CE01019616
:103420000E945510C701EB960FB6F894DEBF0FBE91
:10343000CDBFDF91CF911F910F91FF90EF90089535
:103440008F929F92AF92BF92CF92DF92EF92FF92B4
:103450000F931F93CF93DF93CDB7DEB7EB970FB6E4
:10346000F894DEBF0FBECDBF6C017B015A01AE01E7
:10347000455C5F4F61EB72E0CE01C4960E94B614CA
:1034800040E1BE016C5C7F4FCE0101960E940B169D
:10349000CE01C4960E94590F8701E12CF12CEA1449
:1034A000FB0414F5F801819091908F01E981FA8174
:1034B00036970190F081E02D81E090E08C0F9D1F08
:1034C000E80FF91F81899289009711F00E94061870
:1034D000A401990C660B770BCE0101960E94451949
:1034E0009FEFE91AF90ADBCF8E010C5C1F4F2FEF1B
:1034F0003FEF40E050E0BE016D5E7F4FC6010E948D
:103500005915CE0101960E945510C601EB960FB6D3
:10351000F894DEBF0FBECDBFDF91CF911F910F9109
:10352000FF90EF90DF90CF90BF90AF909F908F90E3
:103530000895CF93DF93CDB7DEB728970FB6F894F1
:10354000DEBF0FBECDBF8091CA049091CB04892B02
:1035500021F01092CB041092CA041886AE01485F85
:103560005F4F60E070E086EC94E00E947C1440E0E5
:1035700050E061EB72E08091C6049091C7040E9414
:1035800090030E94CA030E94E4030E94FE030E946B
:10359000D6040E94BC030E94B3030E94AE0561EDF5
:1035A00072E086EC94E00E94B116E0EAF4E0ADEE41
:1035B000B4E0819191918D939D9324E0E03BF207DB
:1035C000C1F748E050E06DEE74E0CE0101960E9434
:1035D000201ABE016F5F7F4F86EC94E00E947F1639
:1035E000CE0101960E94590F63ED72E086EC94E0E3
:1035F0000E94B116E0E9F4E0ADEDB4E08191919163
:103600008D939D9384E0E03AF807C1F748E050E0DD
:103610006DED74E0CE0101960E94201ABE016F5F2D
:103620007F4F86EC94E00E947F16CE0101960E94A7
:10363000590F65ED72E086EC94E00E94B11660913E
:103640006604709167046C597F4F7093DC0460933B
:10365000DB04CE0101960E94C219BE016F5F7F4F4D
:1036600086EC94E00E947F16CE0101960E94590FCD
:1036700067ED72E086EC94E00E94B11660916C04F4
:1036800070916D046C597F4F7093DA046093D90484
:10369000CE0101960E94C219BE016F5F7F4F86EC7A
:1036A00094E00E947F16CE0101960E94590F69EDA9
:1036B00072E086EC94E00E94B11660913004709143
:1036C00031047093D8046093D704CE0101960E9410
:1036D000C219BE016F5F7F4F86EC94E00E947F1697
:1036E000CE0101960E94590F6BED72E086EC94E0DA
:1036F0000E94B1161092D6041092D50460E070E0DA
:10370000CE0101960E94C219BE016F5F7F4F86EC09
:1037100094E00E947F16CE0101960E94590F60EF3F
:1037200072E086EC94E00E94B1168091C4049091FE
:10373000C5048034AFE19A072CF49093D4048093AD
:10374000D30404C01092D4041092D3046091D30423
:103750007091D404CE0101960E94C219BE016F5F20
:103760007F4F86EC94E00E947F16CE0101960E9466
:10377000590F6DED72E086EC94E00E94B1168DE277
:1037800090E09093D2048093D1046DE270E0CE017A
:1037900001960E94C219BE016F5F7F4F86EC94E0D4
:1037A0000E947F16CE0101960E94590F66E971E0D2
:1037B00086EC94E00E94B1166091CA047091CB042B
:1037C0006F5F7F4F8091C8049091C9048617970757
:1037D00020F486EC94E00E94DE02E091C604F091B1
:1037E000C7048091CA049091CB04E80FF91F10829E
:1037F0008091C6049091C7049093D0048093CF0425
:103800008091F6039091F703DC01ED91FC916091BA
:10381000F4037091F5030190F081E02D4DEC54E03C
:10382000099589E095E00E94521228960FB6F89407
:10383000DEBF0FBECDBFDF91CF9108950F931F93D1
:10384000CF93DF9386E593E090930A058093090573
:1038500084E89AE090930C0580930B0580E091EE4C
:10386000A0E0B0E080930D0590930E05A0930F05A6
:10387000B093100510928F0986E393E090939E0910
:1038800080939D0910929F091092A0091092A1099E
:103890001092A2091092A8091092A7091092A909E2
:1038A0001092AA091092AB091092AC091092B209B9
:1038B0001092B1091092B3091092B4091092B5098F
:1038C0001092B6091092BA091092B909E1E2F9E032
:1038D0001192119289E0E335F807D1F7E3E5F9E0B9
:1038E0001192119289E0E538F807D1F7E1E2F5E0AD
:1038F000119287E0E132F807D9F7E1E2F7E011929F
:1039000089E0E132F807D9F710921D0510921E05E3
:1039100010921F05109220058DEF94E00E949420D4
:1039200002E413E01093CE040093CD04C1EBD2E087
:10393000D093D004C093CF041092C7041092C60451
:1039400088E090E09093C9048093C8041092CB045F
:103950001092CA040E943A2D9093C7048093C60423
:103960001093090400930804D0930B04C0930A0435
:1039700088EC93E09093FB038093FA031093010487
:1039800000930004D0930304C093020482EB98E0F8
:10399000909305048093040481E090E090930704E1
:1039A000809306048FED92E09093FF038093FE03D3
:1039B00088EE92E09093F1038093F0038DEC94E015
:1039C0009093F3038093F2031092F9031092F8039B
:1039D000DF91CF911F910F91089586EC94E00C94A4
:1039E000590FCF92DF92EF92FF920F931F93CF93D5
:1039F000DF938C01EB01688179818A819B8120E0D2
:103A00003AEC4AE95BE30E94A02FF801C080D18024
:103A1000E280F380C20ED31EE41EF51EC082D18266
:103A2000E282F382688379838A839B83DF91CF91DB
:103A30001F910F91FF90EF90DF90CF900895FC01C0
:103A400081E02081FB019081291380E00895FC0131
:103A5000808191819C01215031092F3F310508F06F
:103A600080E008950E942E320E942E320F931F9301
:103A7000FC01028513852485358542875387648739
:103A80007587C901B8011F910F9108958091EB09C5
:103A900090E02091EC09821B910908959091EC0926
:103AA0008091EB09981750F4E92FF0E0E351F64FBD
:103AB000208130E09F5F9093EC0902C02FEF3FEF31
:103AC000C9010895E091EC098091EB09E81730F401
:103AD000F0E0E351F64F808190E008958FEF9FEF83
:103AE00008950895CF92DF92EF92FF920F931F9364
:103AF000CF93DF937C01262F972F8A018091C709EE
:103B0000882391F0C62FD72F6E01C40ED51ECC1579
:103B1000DD0571F06991D701ED91FC910190F08183
:103B2000E02DC7010995F3CF642F822F0E94321F29
:103B3000C801DF91CF911F910F91FF90EF90DF901F
:103B4000CF900895CF93DF931F92CDB7DEB76983EF
:103B50002091C7092223D1F02091C809203240F0DA
:103B600021E030E0FC013383228380E090E015C047
:103B70008091C909E82FF0E0E653F64F99819083D0
:103B80008F5F8093C9098093C80905C061E0CE01A9
:103B900001960E94321F81E090E00F90DF91CF915B
:103BA0000895FC011382128288EE93E0A0E0B0E059
:103BB00084839583A683B78384ED93E09183808388
:103BC00008951092EC091092EB091092C909109215
:103BD000C8090C94761E81E08093C7096093EA09B6
:103BE0001092C9091092C80908950F93062F21E079
:103BF0004091C8096AEC79E08091EA090E94DC1ED4
:103C00001092C9091092C8091092C7090F9108951E
:103C10004F925F926F927F92AF92BF92CF92EF924C
:103C2000FF920F931F93CF93DF935C01F62ED42F57
:103C300028013901EE2021F10E94EB1DCE2DC43068
:103C400008F0C3E0C150C0F0D501ED91FC91B8E09F
:103C5000CB9FC0011124A301920104C05695479542
:103C6000379527958A95D2F7CA01B9010190F0815D
:103C7000E02DC5010995E6CF60E0C5010E94F51D64
:103C80004D2FD13208F040E22C2D6DEE79E08F2DD2
:103C90000E94941E1092EC098093EB09DF91CF9162
:103CA0001F910F91FF90EF90CF90BF90AF907F90BA
:103CB0006F905F904F900895CF92EF920F931F9364
:103CC000C22EE12C00E010E098010E94081E1F9116
:103CD0000F91EF90CF90089521E00C945C1E61E06D
:103CE0000C94F51D8BEB99E00C94D11D10927A0A7F
:103CF00081E08093780A1092770A61E083E10E9464
:103D0000462961E082E10E944629E1E7F0E08081F6
:103D10008E7F808380818D7F808388E48093700094
:103D200085E4809374000895413208F043C0909177
:103D30007A0A9111FCCF91E090937A0A2093780A45
:103D40002FEF20930D0A1092520A240F2093510A4C
:103D50009093790A9091790A880F892B8093790A38
:103D60008091770A813061F41092770A8091790A04
:103D7000809373008091740083FDF8CF85EC01C0BF
:103D800085EE8093740080917A0A8130E1F380910E
:103D9000520A841710F44091520A23E53AE0FB01DD
:103DA000D9018A2F821B841718F48D918193F9CF42
:103DB000842F089580E008950F93413208F04AC09F
:103DC00090917A0A9111FCCF32E030937A0A0093F5
:103DD000780A3FEF30930D0A1092520A4093510A2D
:103DE000FB0163E57AE0DB013A2F361B341718F448
:103DF00031913D93F9CF1092790A3091790A880F69
:103E0000832B8093790A8091770A813061F4109234
:103E1000770A8091790A809373008091740083FD02
:103E2000F8CF85EC01C085EE80937400222321F049
:103E300080917A0A8230D1F380910D0A8F3F79F018
:103E400080910D0A803241F080910D0A803331F06B
:103E500094E005C091E003C092E001C093E0892F97
:103E60000F910895613298F420917A0A243089F4F0
:103E700060932F0AFC0121E33AE0D9018A2F821BCB
:103E8000861718F481918D93F9CF80E0089581E031
:103E9000089582E0089585ED809374008091740008
:103EA00084FDFCCF10927A0A089585EC809374000B
:103EB00010927A0A08951F920F920FB60F92112452
:103EC0000BB60F922F933F934F935F936F937F9314
:103ED0008F939F93AF93BF93EF93FF938091710064
:103EE000887F803609F49EC078F5883209F45DC079
:103EF00090F4803109F456C038F4882309F4F5C0F1
:103F0000883009F44FC0F5C0883109F44EC08032C2
:103F100009F45FC0EEC0803409F46AC058F48033FD
:103F200009F457C0883309F0E4C080930D0A0E9459
:103F3000551FDFC0803509F44FC0883509F45DC0D6
:103F4000883409F0D6C0D3C0883909F4C4C0A8F4B5
:103F5000883709F467C038F4883609F463C08037BD
:103F600009F460C0C6C0883809F4B5C0803909F4C6
:103F70005FC0803809F0BDC05BC0803B09F483C0DE
:103F800038F4803A09F466C0883A09F47CC0B1C0BC
:103F9000803C09F4A4C0883C09F4A1C0883B09F422
:103FA00087C0A7C08091790A10C09091520A809171
:103FB000510A981770F5E091520A81E08E0F8093B4
:103FC000520AF0E0ED5AF54F80818093730085EC42
:103FD00083C080930D0A8BC0E091520A81E08E0F5E
:103FE0008093520A80917300F0E0ED5AF54F808380
:103FF0009091520A8091510A6BC0E091520A81E07F
:104000008E0F8093520A80917300F0E0ED5AF54FC5
:1040100080838091780A81116AC081E08093770A59
:1040200084EA5EC083E080937A0A10920E0ACFCFB2
:1040300080910E0A803208F04EC0E0910E0A81E0B5
:104040008E0F80930E0A80917300F0E0E15FF54FD0
:104050008083BDCF0E94551F80910E0A803230F4BC
:10406000E0910E0AF0E0E15FF54F108260910E0AD8
:1040700070E0E091730AF091740A8FE09AE009957C
:1040800010920E0A36C084E080937A0A1092300AA9
:1040900010922F0AE091750AF091760A09958091A5
:1040A0002F0A811105C081E080932F0A1092310AF6
:1040B000E091300A81E08E0F8093300AF0E0EF5CEF
:1040C000F54F8081809373009091300A80912F0A80
:1040D000981708F47CCF85E8809374000AC085ECBB
:1040E0008093740010927A0A04C010920D0A0E9404
:1040F0004B1FFF91EF91BF91AF919F918F917F9156
:104100006F915F914F913F912F910F900BBE0F9048
:104110000FBE0F901F901895DC01ED91FC9101905E
:10412000F081E02D642F0994FC0189E281831382E0
:104130001282148208959C013327A90102C0440F02
:10414000551F9A95E2F7CA01019608950F931F93A0
:104150000097C9F0AC014150510960E070E080E087
:1041600090E08A019B010027012B022B032B31F0E9
:1041700076956795579547950196F3CF982F8827A1
:10418000842B952B02C080E090E01F910F91089541
:104190008F929F92AF92BF92CF92DF92EF92FF9257
:1041A000CF93DF93EC01A62FB0E020E03FE24AE39B
:1041B00050E00E94EA2F6C507E4F8F4F9F4F28EEA9
:1041C000C22E23E0D22EE12CF12CA70196010E94F1
:1041D000A02F49015A01B694A79497948794DE01C1
:1041E0000E94EA2F680D791D8A1D9B1DA70196016B
:1041F0000E94A02FCA01B901DF91CF91FF90EF90EB
:10420000DF90CF90BF90AF909F908F9008954F9286
:104210005F926F927F928F929F92AF92BF92CF9256
:10422000DF92EF92FF924B015C01A42FB0E020E0FF
:104230003FE24AE350E00E94EA2F6C507E4F8F4FDE
:104240009F4F28EE33E040E050E00E94A02F69012C
:104250007A0129013A017694679457944794A8EE1D
:10426000B3E0A50194010E94EA2F640D751D861D1F
:10427000971DA70196010E94A02FCA01B901FF90C6
:10428000EF90DF90CF90BF90AF909F908F907F90F6
:104290006F905F904F900895EF92FF921F93CF938E
:1042A000DF931F92CDB7DEB77C01162FFC01618131
:1042B0008BEB99E049830E94EB1D612F8BEB99E01A
:1042C0000E94A21D4981642F8BEB99E00E94A21DE0
:1042D0008BEB99E00E946F1EF70180830F90DF91B6
:1042E000CF911F91FF90EF900895CF92DF92EF92C0
:1042F000FF921F93CF93DF93EC01162F69017A0190
:1043000069818BEB99E00E94EB1D612F8BEB99E0AB
:104310000E94A21D4F2D5527662777278BEB99E02A
:104320000E948C204E2D50E060E070E08BEB99E015
:104330000E948C204D2D50E060E070E08BEB99E006
:104340000E948C20B701A6015527662777278BEBA3
:1043500099E00E948C208BEB99E00E946F1E88836D
:10436000DF91CF911F91FF90EF90DF90CF90089554
:10437000CF92DF92EF92FF921F93CF93DF9300D003
:10438000CDB7DEB77C01D62E142FFC0161818BEBFB
:1043900099E029835A830E94EB1D6D2D8BEB99E0E8
:1043A0000E94A21DC12E5A81D52E2981120F1C15E3
:1043B00041F0F60161916F018BEB99E00E94A21D23
:1043C000F6CF8BEB99E00E946F1EF70180830F9070
:1043D0000F90DF91CF911F91FF90EF90DF90CF90E2
:1043E0000895EF92FF921F93CF93DF9300D0CDB744
:1043F000DEB77C01162FFC0161818BEB99E04A83CB
:1044000059830E94EB1D612F8BEB99E00E94A21D46
:104410005981652F8BEB99E00E94A21D4A81642F80
:104420008BEB99E00E94A21D8BEB99E00E946F1E1E
:10443000F70180830F900F90DF91CF911F91FF9034
:10444000EF900895CF92DF92EF92FF92CF93DF9398
:10445000EC016A017B0120E030E0A901C701B6014F
:104460000E94AB2D87FD1BC028EB3EEF4FEF53E4BE
:10447000C701B6010E940A2F18168CF020E030E028
:1044800040E053E4C701B6010E940F2F0E94292E7D
:10449000AB0164E4CE010E94F12181E001C080E023
:1044A000DF91CF91FF90EF90DF90CF9008951F9311
:1044B000CF93DF93EC01162F69818BEB99E00E947B
:1044C000EB1D612F8BEB99E00E94A21D8BEB99E015
:1044D0000E946F1E888341E069818BEB99E00E9406
:1044E0006C1E8BEB99E00E944E1DDF91CF911F91C6
:1044F0000895EF92FF920F931F93CF93DF93EC01F8
:104500007B018A0141E060E80E944C2141E06FEFAD
:10451000CE010E944C2140E060E0CE010E944C217F
:1045200046E06FEFCE010E944C2163E8CE010E946D
:104530005722482F446063E8CE010E944C2147E097
:104540006FEFCE010E944C2141E061E8CE010E9454
:104550004C2141E060E8CE010E944C214BE664E929
:10456000CE010E944C2140E063E8CE010E944C2124
:104570000E94E0287E836D8363E8CE010E9457226B
:10458000811111C08A819B81892BB1F30E94E0289F
:104590002D813E81621B730B8A819B818617970751
:1045A00058F780E03CC041E063E8CE010E944C2116
:1045B00062E9CE010E945722982F9F77F7019083DE
:1045C000982F991F9927991FF801908340E061E87F
:1045D000CE010E944C2146E06FEFCE010E944C219B
:1045E00063E8CE010E945722482F4B7F63E8CE013B
:1045F0000E944C2141E06FEFCE010E944C2141E02E
:1046000060E0CE010E944C2140E06FEFCE010E949D
:104610004C2140E060E8CE010E944C2181E0DF9116
:10462000CF911F910F91FF90EF900895CF93DF935B
:10463000EB0161E00E94572284FB992790F998834F
:1046400083FB992790F99A8382FB992790F99983A4
:1046500086FB992790F99B83982F991F9927991F7B
:104660009C83DF91CF910895CF93DF93EC01462F88
:10467000416060E00E944C210E94E0287E836D83AF
:1046800063E1CE010E945722877089F48A819B8161
:10469000892BB1F30E94E0282D813E81621B730BB0
:1046A0008A819B818617970758F780E00BC041E00D
:1046B0006BE0CE010E944C2140E060E0CE010E9400
:1046C0004C2181E0DF91CF9108956115710511F4BE
:1046D00060E504C06130710531F460E70E94572243
:1046E0008F5F880F08958FEF08951F93CF93DF9307
:1046F000EC01162F69818BEB99E00E94EB1D612F75
:104700008BEB99E00E94A21D8BEB99E00E946F1E3B
:10471000888342E069818BEB99E00E946C1E8BEBF1
:1047200099E00E944E1DD82F80E0C82F8BEB99E0B6
:104730000E944E1D8C2B9D2BDF91CF911F910895D0
:10474000CF92DF92EF92FF92CF93DF93EC016A0159
:104750007B0141E060E80E944C2141E06FEFCE0117
:104760000E944C2140E060E0CE010E944C214F812C
:1047700061E9CE010E944C2141E060E0CE010E943F
:104780004C2140E06FEFCE010E944C2140E060E8F8
:10479000CE010E944C21C114D104E104F104A9F01E
:1047A00068EFCE010E947523009739F0DC01A70164
:1047B00096010E94EA2F6B017C01A701960164E03B
:1047C000CE010E94752144E001C042E060E0CE01CC
:1047D000DF91CF91FF90EF90DF90CF900C944C2120
:1047E0000F931F93CF93DF93EC010E94E0287E8309
:1047F0006D8363E1CE010E9457228770A1F48A8104
:104800009B81892BB1F30E94E0282D813E81621BA0
:10481000730B8A819B818617970758F781E08C83F9
:104820008FEF9FEF0BC06EE1CE010E9475238C01CC
:1048300041E06BE0CE010E944C21C801DF91CF9195
:104840001F910F910895EF92FF920F931F93CF93B3
:10485000DF938C017B01EA0160E070E00E94652338
:1048600090E09983888366E4C8010E945722282F2C
:1048700030E0C90101969D838C8368810E94C82025
:104880006A877B878C879D8761E5C8010E947523B5
:104890000E949B209F838E8368810E94C8206E8720
:1048A0007F87888B998B60E7C8010E9457228F5FB2
:1048B000880F90E09B838A8361E7C8010E9475237B
:1048C0000E949B2099878887F7012381222331F05A
:1048D0002E813F81821B930B998788876A81888507
:1048E00099850E94C8206A8B7B8B8C8B9D8BDF9176
:1048F000CF911F910F91FF90EF9008958F929F920B
:10490000AF92BF92CF92DF92EF92FF920F931F93DD
:10491000CF93DF93CDB7DEB76B970FB6F894DEBFBA
:104920000FBECDBF40322EE452076105710508F479
:104930007CC04A015B017C01BE01695E7F4F0E9421
:104940001623AE014F5F5F4FBE01695E7F4FC70107
:104950000E9423248F89882349F00B851C852D858F
:104960003E850A5C144F2F4F3F4F04C008EE18E0FD
:1049700020E030E0898D882369F08B859C85AD85AA
:10498000BE858E549D4FAF4FBF4F880F991FAA1FF2
:10499000BB1F0BC0888D882361F08B859C85AD85FE
:1049A000BE858C569D4FAF4FBF4F080F191F2A1F52
:1049B0003B1FCA8CCC2061F08F859889A989BA8960
:1049C0008C569D4FAF4FBF4F080F191F2A1F3B1F1B
:1049D000DB8CDD2039F10A5D1D4F2F4F3F4F8016D4
:1049E0009106A206B30608F1C501B401601B710B64
:1049F000820B930B4B810E9407219B01CC2021F05D
:104A00002F813885260F371FC9010E94A620AC01CF
:104A100061E7C7010E94F121F70180869186A28695
:104A2000B38604C0DD24D39401C0D12C8D2D6B96A8
:104A30000FB6F894DEBF0FBECDBFDF91CF911F91AF
:104A40000F91FF90EF90DF90CF90BF90AF909F902D
:104A50008F900895CF92DF92EF92FF920F931F9362
:104A6000CF93DF93CDB7DEB76B970FB6F894DEBF69
:104A70000FBECDBF8C01BE01695E7F4F0E94162321
:104A8000AE014F5F5F4FBE01695E7F4FC8010E945C
:104A900023248F89882359F08B859C85AD85BE851D
:104AA000BC01CD016C57724F8F4F9F4F04C066E31E
:104AB0007BE080E090E0298D222379F0CB84DC84B8
:104AC000ED84FE8422EBC20E22E0D21EE11CF11C1A
:104AD000CC0CDD1CEE1CFF1C0DC0288D222371F0B8
:104AE000CB84DC84ED84FE84E4E9CE0EE2E0DE1EBD
:104AF000E11CF11C6C0D7D1D8E1D9F1D2A8D222336
:104B000071F0CF84D888E988FA88F4E9CF0EF2E012
:104B1000DF1EE11CF11C6C0D7D1D8E1D9F1D2B8D5C
:104B2000222371F0CB88DC88ED88FE8826E2C20E55
:104B300022E0D21EE11CF11C6C0D7D1D8E1D9F1DFF
:104B4000F80160877187828793876B960FB6F89418
:104B5000DEBF0FBECDBFDF91CF911F910F91FF90B0
:104B6000EF90DF90CF900895CF92DF92EF92FF9277
:104B70000F931F93CF93DF931F92CDB7DEB76C01D6
:104B8000F62E142F022FFC0161818BEB99E05983E3
:104B90000E94EB1D6F2D8BEB99E00E94A21D8BEB09
:104BA00099E00E946F1EF6018083402F61818BEB9C
:104BB00099E00E946C1EE12E5981F52E100F1E15F2
:104BC00041F08BEB99E00E944E1DF70181937F012C
:104BD000F6CF0F90DF91CF911F910F91FF90EF9043
:104BE000DF90CF900895FF920F931F93CF93DF93A1
:104BF000CDB7DEB728970FB6F894DEBF0FBECDBF96
:104C00008C01662349F069E80E945722482F4160D1
:104C100069E8C8010E944C2140E068E8C8010E9490
:104C20004C2141E060E8C8010E944C2141E06FEF57
:104C3000C8010E944C2140E060E0C8010E944C2164
:104C400061E9C8010E945722F801878341E060E0D2
:104C5000C8010E944C2140E06FEFC8010E944C2126
:104C600040E060E8C8010E944C2160E6C8010E9453
:104C70005722482F426160E6C8010E944C2140E063
:104C800050E060E87EE3C8010E9422224FEF61E01D
:104C9000C8010E944C21AE01495F5F4FBE01685FB1
:104CA0007F4FC8010E947922811102C0F12C31C2CC
:104CB00026E0AE014F5F5F4F60EBC8010E94B42554
:104CC00041E06FEFC8010E944C2140E06FE4C80151
:104CD0000E944C214CE26EE4C8010E944C2140E04D
:104CE0006FEFC8010E944C2144EB66EBC8010E94A3
:104CF0004C218F81811102C040E001C04CE0A885A9
:104D000080E090E061E070E0282F269526952695BA
:104D1000582F5770E1E0F0E0EC0FFD1FE20FF11D9E
:104D2000841710F09A130AC09B0101C0220F5A95F4
:104D3000EAF7209530812323208309C0208130E0C9
:104D400002C0359527955A95E2F720FD9F5F8F5F4A
:104D50008033D1F626E0AE014F5F5F4F60EBC801B4
:104D60000E94B82141E06FEFC8010E944C2140E051
:104D700060E0C8010E944C2140E06FEFC8010E9432
:104D80004C2140E069E0C8010E944C2140E060E114
:104D9000C8010E944C2140E061E1C8010E944C2101
:104DA00041E064E2C8010E944C214FEF65E2C80176
:104DB0000E944C2140E065E7C8010E944C2141E07F
:104DC0006FEFC8010E944C214CE26EE4C8010E94C2
:104DD0004C2140E068E4C8010E944C2140E260E3BD
:104DE000C8010E944C2140E06FEFC8010E944C2195
:104DF00049E060E3C8010E944C2140E064E5C8013D
:104E00000E944C2144E061E3C8010E944C2143E030
:104E100062E3C8010E944C2143E860E4C8010E949B
:104E20004C2145E266E4C8010E944C2140E060E666
:104E3000C8010E944C2140E067E2C8010E944C2159
:104E400046E060E5C8010E944C2140E061E5C801F0
:104E50000E944C2146E962E5C8010E944C2148E0CD
:104E600066E5C8010E944C2140E367E5C8010E9445
:104E70004C2140E061E6C8010E944C2140E062E61E
:104E8000C8010E944C2140E064E6C8010E944C2108
:104E900040E065E6C8010E944C2140EA66E6C80190
:104EA0000E944C2141E06FEFC8010E944C2142E377
:104EB00062E2C8010E944C2144E167E4C8010E94FB
:104EC0004C214FEF69E4C8010E944C2140E06AE4A4
:104ED000C8010E944C2140E06FEFC8010E944C21A4
:104EE0004AE06AE7C8010E944C2140E06BE7C80134
:104EF0000E944C2141E268E7C8010E944C2141E038
:104F00006FEFC8010E944C2144E363E2C8010E9494
:104F10004C2140E062E4C8010E944C214FEF64E460
:104F2000C8010E944C2146E265E4C8010E944C2160
:104F300045E066E4C8010E944C2140E460E4C801F9
:104F40000E944C2146E06EE0C8010E944C214AE1DB
:104F500060E2C8010E944C2140E463E4C8010E9461
:104F60004C2140E06FEFC8010E944C2143E064E314
:104F7000C8010E944C2144E465E3C8010E944C2111
:104F800041E06FEFC8010E944C2144E061E3C80199
:104F90000E944C2149E06BE4C8010E944C2145E08D
:104FA0006CE4C8010E944C2144E06DE4C8010E94F9
:104FB0004C2140E06FEFC8010E944C2140E064E4C6
:104FC000C8010E944C2140E265E4C8010E944C21C6
:104FD00048E067E4C8010E944C2148E268E4C80147
:104FE0000E944C2140E067E6C8010E944C2144E049
:104FF00060E7C8010E944C2141E061E7C8010E94BE
:105000004C214EEF62E7C8010E944C2140E066E768
:10501000C8010E944C2140E067E7C8010E944C2172
:1050200041E06FEFC8010E944C2141E06DE0C801F2
:105030000E944C2140E06FEFC8010E944C2141E0EA
:1050400060E8C8010E944C2148EF61E0C8010E945D
:105050004C2141E06FEFC8010E944C2141E06EE815
:10506000C8010E944C2141E060E0C8010E944C212F
:1050700040E06FEFC8010E944C2140E060E8C801A9
:105080000E944C2144E06AE0C8010E944C2164E87F
:10509000C8010E945722482F4F7E64E8C8010E9431
:1050A0004C2141E06BE0C8010E944C21C8010E94E4
:1050B0002A25F801608771878287938748EE61E02F
:1050C000C8010E944C21F801408551856285738595
:1050D000C8010E947E2441E061E0C8010E944C2189
:1050E00060E4C8010E943423882309F4DFCD42E044
:1050F00061E0C8010E944C2160E0C8010E94342395
:10510000F82E882309F4D2CD48EE61E0C8010E9450
:105110004C218F2D28960FB6F894DEBF0FBECDBF61
:10512000DF91CF911F910F91FF9008951F920F92E1
:105130000FB60F9211242F933F938F939F93AF93AA
:10514000BF9380917C0A90917D0AA0917E0AB091D4
:105150007F0A30917B0A23E0230F2D3720F401963C
:10516000A11DB11D05C026E8230F0296A11DB11D8A
:1051700020937B0A80937C0A90937D0AA0937E0AF9
:10518000B0937F0A8091800A9091810AA091820A4F
:10519000B091830A0196A11DB11D8093800A90935E
:1051A000810AA093820AB093830ABF91AF919F9125
:1051B0008F913F912F910F900FBE0F901F901895D8
:1051C0002FB7F89460917C0A70917D0A80917E0AD5
:1051D00090917F0A2FBF0895789483B7806483BF2E
:1051E00083B7886083BF83B7846083BF87B78160DC
:1051F00087BF1EBC8EB582608EBD8EB581608EBDB0
:105200008FB581608FBD85B5846085BD85B58064AF
:1052100085BDEAE8F0E080818260808380818160E2
:105220008083EBE8F0E0808181608083329A319A5C
:10523000309A379A1AB8089590E0FC013197EC3013
:10524000F10518F5EA5BFF4F0C94E12F8FB58F77CE
:1052500002C08FB58F7D8FBD08958FB5877FFBCF3F
:1052600085B58F7D85BD089583B78F7D83BF0895F4
:1052700080918B008F7707C080918B008F7D03C05A
:1052800080918B00877F80938B0008951F93CF932D
:10529000DF93282F30E0F901EC55FF4F8491F9019D
:1052A000E752FF4FD491F901E25FFE4FC491CC2346
:1052B000C9F0162F81110E941C29EC2FF0E0EE0F8F
:1052C000FF1FED5BFE4FA591B4918FB7F8941111BC
:1052D00005C09C91ED2FE095E92302C0EC91ED2BE8
:1052E000EC938FBFDF91CF911F910895FC01918DB9
:1052F000228D892F90E0805C9F4F821B91098F73D4
:1053000099270895FC01918D828D981731F0828D37
:10531000E80FF11D858D90E008958FEF9FEF0895C0
:10532000FC01918D828D981761F0828DDF01A80FAD
:10533000B11D5D968C91928D9F5F9F73928F90E0CF
:1053400008958FEF9FEF089582E19BE2892B41F052
:1053500080E090E0892B21F00E94122B81110DC07A
:1053600080E090E0892B71F080E090E0892B51F093
:105370000E940000811104C008950E940000F0CF37
:105380000C9400000895FC01848DDF01A80FB11D6D
:10539000A35ABF4F2C91848D90E001968F7399276B
:1053A000848FA689B7892C93A089B1898C91806458
:1053B0008C93938D848D981306C00288F389E02D19
:1053C00080818F7D80830895CF93DF93EC01888D5A
:1053D0008823C9F0EA89FB89808185FD05C0A889F9
:1053E000B9898C9186FD0FC00FB607FCF5CF80817F
:1053F00085FFF2CFA889B9898C9185FFEDCFCE01C9
:105400000E94C329E7CFDF91CF910895EF92FF92D9
:105410000F931F93CF93DF93EC0181E0888F9B8DD7
:105420008C8D981305C0E889F989808185FD24C099
:10543000F62E0B8D10E00F5F1F4F0F731127E02E1C
:105440008C8DE8120CC00FB607FCFACFE889F989F9
:10545000808185FFF5CFCE010E94C329F1CF8B8DCE
:10546000FE01E80FF11DE35AFF4FF0820B8FEA892E
:10547000FB898081806207C0EE89FF896083E889AB
:10548000F98980818064808381E090E0DF91CF9111
:105490001F910F91FF90EF900895CF92DF92EF92BE
:1054A000FF921F93CF93DF93EC016A017B01122FD0
:1054B000E889F98982E080834115514E61057105C3
:1054C000B1F060E079E08DE390E0A70196010E94E1
:1054D000A02FDA01C9010197A109B109B695A795D5
:1054E00097958795AC01411580E15807A8F0E889A8
:1054F000F989108260E874E88EE190E0A7019601D6
:105500000E94A02FBA01A9014150510961097109F6
:105510007695679557954795EC85FD855083EE8583
:10552000FF854083188EEC89FD891083EA89FB8909
:10553000808180618083EA89FB89808188608083A3
:10554000EA89FB89808180688083EA89FB89808180
:105550008F7D8083DF91CF911F91FF90EF90DF903F
:10556000CF9008951F920F920FB60F9211240BB691
:105570000F922F938F939F93EF93FF93E091940A51
:10558000F091950A8081E0919A0AF0919B0A82FD40
:1055900012C0908180919D0A8F5F8F7320919E0A27
:1055A000821751F0E0919D0AF0E0EC57F54F958F8E
:1055B00080939D0A01C08081FF91EF919F918F910F
:1055C0002F910F900BBE0F900FBE0F901F9018954C
:1055D0001F920F920FB60F9211240BB60F922F93BA
:1055E0003F934F935F936F937F938F939F93AF936B
:1055F000BF93EF93FF9384E89AE00E94C329FF9141
:10560000EF91BF91AF919F918F917F916F915F913A
:105610004F913F912F910F900BBE0F900FBE0F90A7
:105620001F90189584E89AE00E94762921E0892B42
:1056300009F420E0822F0895E4E8FAE01382128250
:1056400088EE93E0A0E0B0E084839583A683B783DF
:1056500084EE93E09183808380E990E0958784874E
:1056600089E290E0978786878BE290E0918B808B30
:105670008AE290E0938B828B85E990E0958B848B16
:105680008CE290E0978B868B118E128E138E148E87
:105690000895CF92DF92EF92FF920F931F93CF93D3
:1056A000DF936C017A018B01C0E0D0E0CE15DF05FD
:1056B00089F0D8016D918D01D601ED91FC91019099
:1056C000F081E02DC6010995892B11F47E0102C0FD
:1056D0002196ECCFC701DF91CF911F910F91FF90E1
:1056E000EF90DF90CF9008954F925F926F927F92EC
:1056F000AF92BF92CF92DF92EF92FF920F931F93E0
:10570000CF93DF93CDB7DEB729013A019B01AC01FE
:10571000241935094609570989899A89AB89BC89B1
:10572000BC01CD016A197B098C099D090E947C2F5F
:10573000A801970124193509460957090E94C22F6B
:10574000CA01B9016A0D7B1D8C1D9D1DDF91CF9192
:105750001F910F91FF90EF90DF90CF90BF90AF908F
:105760007F906F905F904F9008950895FC01808125
:1057700091810C94AD30CF93DF93EC0188819981B6
:10578000009711F00E94AD30198218821D821C8290
:105790001B821A82DF91CF9108950F931F93CF93AD
:1057A000DF93EC018B016F5F7F4F888199810E94AD
:1057B0004531009731F0998388831B830A8381E008
:1057C00001C080E0DF91CF911F910F910895CF9399
:1057D000DF93EC0188819981892B29F08A819B8153
:1057E0008617970760F4CE010E94CD2B882341F0E5
:1057F0008C819D81892B19F4E881F981108281E0E7
:10580000DF91CF910895EF92FF920F931F93CF9363
:10581000DF93EC017B018A01BA010E94E72B811121
:1058200004C0CE010E94BB2B07C01D830C83B701AF
:10583000888199810E948032CE01DF91CF911F91A2
:105840000F91FF90EF900895FC0111821082138256
:105850001282158214826115710551F0FB010190CD
:105860000020E9F73197AF01461B570B0C94032C2E
:1058700008950F931F93CF93DF938C01EB01FC01ED
:10588000808191810097D1F06881798161157105DE
:1058900099F025EB3BE2232B79F0428153812C8157
:1058A0003D814217530740F00E9480328C819D81D8
:1058B000F8019583848313C00E94AD30888199815B
:1058C000F801918380838A819B81938382838C8179
:1058D0009D8195838483198218821B821A821D827E
:1058E0001C82DF91CF911F910F910895CF93DF9389
:1058F000EC01FB018617970761F0608171816115EA
:10590000710529F0448155810E94032C02C00E9438
:10591000BB2BCE01DF91CF910895FC011182108243
:1059200013821282158214820C94762CCF93DF930B
:10593000EC018617970711F00E94392CCE01DF91F8
:10594000CF910895CF93DF93EC016115710559F064
:10595000FB0101900020E9F73197AF01461B570B7F
:105960000E94032C02C00E94BB2BCE01DF91CF917D
:105970000895CF93DF93FC012481358142175307AB
:1059800078F4C081D181062E000C770BCE01840FF4
:10599000951F0E947532009719F08C1B9D0B02C059
:1059A0008FEF9FEFDF91CF91089540E050E00C948E
:1059B000B92CBF92CF92DF92EF92FF920F931F9379
:1059C000CF93DF937C016B018A01E901241735072E
:1059D00020F4812F8901C42FD82F61EB72E0C70119
:1059E0000E94242CD60114968D919C91159708172E
:1059F0001907D0F48C179D0708F4EC01D601ED913E
:105A0000FC911197EC0FFD1FB08010824D915C91BD
:105A1000BA01600F711FC7010E94A22CD601ED913F
:105A2000FC91EC0FFD1FB082C701DF91CF911F9158
:105A30000F91FF90EF90DF90CF90BF900895FC0101
:105A400080819181009711F00C94333260E070E016
:105A5000CB01089508950E94EC280E942A2D0E94EF
:105A60007F09C4EAD9E20E94991A2097E1F30E94C3
:105A7000A429F9CF0C9418300C94AD305058BB27A2
:105A8000AA270E94562D0C94D02E0E94C22E38F0C8
:105A90000E94C92E20F039F49F3F19F426F40C948B
:105AA000BF2E0EF4E095E7FB0C94B92EE92F0E946F
:105AB000E12E58F3BA17620773078407950720F0A1
:105AC00079F4A6F50C94032F0EF4E0950B2EBA2F63
:105AD000A02D0B01B90190010C01CA01A0011124F4
