:100000000C94BE000C94E8000C94E8000C94E800FA
:100010000C94E8000C94E8000C94E8000C94910A0D
:100020000C94E8000C94E8000C94E8000C94E800B0
:100030000C94E8000C94E8000C94E8000C94E800A0
:100040000C9477290C94E8000C94012C0C94372C18
:100050000C94E8000C94E8000C94E8000C94E80080
:100060000C94E8000C94E8000C94E8000C94E80070
:100070000C94E8000C94E8000C94E8000C94E80060
:100080000C94E8000C943C200C94E800152A152AE6
:10009000262A072A0A2A0E2A112A262A262A192A55
:1000A0001D2A212A0000000A0B0C0000000000009D
:1000B0000104050600000000000000000000000030
:1000C0000000000000000000000000000000000030
:1000D00000000000000000000001020408102040A1
:1000E000800102040810204080081001020408105A
:1000F000204080010201020408102040800480405A
:1001000020100804020101020408102040800505A7
:1001100005050505050502020202020202020707A3
:10012000040404040404040407070303030303038F
:10013000030307010101010101010106060606068C
:10014000060606000039003600330030002100208A
:1001500000630000003B00380035003200230062DD
:1001600000650000003A00370034003100220061D1
:1001700000640000E11C531F6B2CCE1D11241FBE18
:10018000CFEFD0E1DEBFCDBF14E0A0E0B1E0E8E604
:10019000FEE600E00BBF02C007900D92A433B1074A
:1001A000D9F72BE0A4E3B4E001C01D92A338B20755
:1001B000E1F710E0CDEBD0E004C02197FE010E94F2
:1001C0008831CA3BD107C9F70E947A2E0C94273791
:1001D0000C940000CF92DF92EF92FF920F931F9347
:1001E000E82FF92F05C0015011092109310961F1EA
:1001F000908196239417B9F305C001501109210984
:10020000310911F1908196239413F7CFC12CD12C91
:10021000E12CF12C0AC08FEFC81AD80AE80AF80AB4
:100220000C151D052E053F0579F080818623841766
:1002300091F36C2D7D2D8E2D9F2D1F910F91FF9091
:10024000EF90DF90CF90089560E070E080E090E064
:100250001F910F91FF90EF90DF90CF900895DC01F8
:10026000FB0112968C911297808313968C911397B1
:10027000818314968C911497828315968C9115978F
:10028000838316968C911697848317968C91179773
:10029000858318968C911897868319968C918783FD
:1002A00088E090E00895FC01DB014C9150E060E0B3
:1002B00070E0428353836483758311968C91119708
:1002C000582B428353836483758312968C911297C3
:1002D000682B428353836483758313968C911397A1
:1002E000782B428353836483758314964C911497BF
:1002F00050E060E070E04683578360877187159611
:100300008C911597582B4683578360877187169673
:100310008C911697682B4683578360877187179651
:100320008C91782B468357836087718788E090E0B3
:1003300008958CE891E008958AE991E008958BEBA7
:1003400091E0089584ED91E0089585EF91E008959E
:1003500088E092E008958AE293E0089589E292E0CD
:100360000895DC01FB0112964C91129713962C9183
:10037000139714969C91149715968C914083218322
:100380009283838384E090E00895FB012181428180
:1003900050E060E070E0BA0155274427522B2081DD
:1003A000422B2381722BFC01428353836483758328
:1003B00084E090E008958AE492E0089589E592E06F
:1003C00008958AE792E008958AE892E008950895F2
:1003D000FC018485958508958AE792E008958AE86E
:1003E00092E0089508950895242FDC01ED91FC9189
:1003F0000084F185E02D41E0099480E090E00895CB
:10040000FC01848995892789308D821B930B08957F
:10041000EF92FF92CF93DF93FC01DB0160E070E08D
:10042000CB01E788F08CC489D589EC16FD06A8F4C9
:10043000621773078407950784F4C089D189CE0DAC
:10044000DF1DC881CD936F5F7F4F8F4F9F4FC7894F
:10045000D08D2196D08FC78BE4CFDF91CF91FF90C5
:10046000EF900895FC012789308D8489958928179C
:10047000390740F480899189FC01E20FF31F8081E4
:1004800090E008958FEF9FEF0895CF93DF93EC01F5
:10049000E881F9810288F389E02D09958F3F2FEFDC
:1004A000920731F02F89388D2F5F3F4F388F2F8B78
:1004B000DF91CF910895FC01EA57FB4F80810895A9
:1004C0000C948B2EEF92FF920F931F93CF93DF9399
:1004D00000D01F92CDB7DEB7FC017B836A836789AA
:1004E000708D6115710539F0848995898617970794
:1004F00028F4908F878B8FEF9FEF36C08A819B8186
:1005000061507109019629F4708F678B80E090E04B
:100510002BC08F01808991897C01E60EF71ECE01E8
:1005200002960E94DA1D8983B701CE0101960E94CE
:10053000D21D882339F0F8018789908D0197908F1B
:10054000878B10C0F801878584FFD5CF8789908D70
:100550000197908F878B20893189F901E80FF91F66
:100560002A8120838A819B810F900F900F90DF91C9
:10057000CF911F910F91FF90EF900895AF92BF928E
:10058000CF92DF92EF92FF920F931F93CF93DF935F
:1005900000D000D01F92CDB7DEB78C016B0164365E
:1005A00071053CF0FC01EA57FB4F8081882309F478
:1005B00078C0DA01ED91FC910190F081E02DB80155
:1005C000615E7D4FCA0109957801B8EEEB1ABDEF67
:1005D000FB0A2FEFF70120832EEF3196208331960F
:1005E0008083319690833196292F280F2095208380
:1005F0003196C082D801A25EBD4FDC9245E050E04A
:1006000020E030E0BC016A5F7F4F6417750734F06B
:10061000A1912A0F311D4F5F5F4FF7CF6C01F8E0BA
:10062000CF0ED11C800F911FFC01E15EFD4F209584
:10063000208321E0C21622E0D206CCF45701C50186
:100640008E199F098C159D0584F4D80112968D9101
:100650009C911397F50161915F01DC01ED91FC9193
:100660000190F081E02D0995EACFC6011CC082E619
:1006700093E09A83898383E08B838BEA92E09D8366
:100680008C83D801ED91FC910190F081E02DAE01B9
:100690004F5F5F4F67E070E0C80109958FEF9FEFF4
:1006A00002C080E090E00F900F900F900F900F909D
:1006B000DF91CF911F910F91FF90EF90DF90CF903E
:1006C000BF90AF9008950F931F93CF93DF93EC01EA
:1006D000CB01088119817B836A830E94892E9983CB
:1006E000888320E030E08C819D812817390770F4E1
:1006F000E881F981E20FF31F309729F0D801A20FAA
:10070000B31F8C9180832F5F3F4FEDCFC801DF91E6
:10071000CF911F910F910C948B2EBD9ABE9ABF9AC8
:100720001EBC1DBC1CBC1BBC1ABC19BC18BC109246
:1007300079001092780082E087BD8AE986BD8AEA56
:100740008FBD8AE18EBD0895139A149A159AEAE82E
:10075000F0E01082109289001092880010928700B9
:1007600010928600109285001092840082E080939F
:1007700081008AE9809380008AEA80938B008AE175
:100780008083089587B3876087BBC09AE1E6F0E075
:1007900080818F608083E2E6F0E080818F608083DB
:1007A0008DB183658DB908958FB9779BFECF8FB1D9
:1007B0000895CF93C82FC295CC0FCC0FC07C04975F
:1007C00014F486E001C087E00E94D4038C2F0E94BD
:1007D000D403C82F8FEF0E94D403CF702C2F30E0AA
:1007E000322F2227A901482BCA01CF9108950F93D8
:1007F0001F93CF93DF9302E610E0F8019081C1E0F0
:10080000D0E001C0CC0F8A95EAF78C2F8095982311
:100810009083CB010E94D903F8012081C22BC083B1
:10082000DF91CF911F910F910895CF92DF92EF92B8
:10083000FF920F931F93FB01DC0100E010E0980191
:100840006A01E12CF12C0C151D052E053F0538F42D
:1008500061916D930F5F1F4F2F4F3F4FF4CF840F68
:10086000951F1F910F91FF90EF90DF90CF9008950B
:100870008BE595E00E94D124909315058093140593
:100880000895829B07C081E090E09093810480935B
:100890008004089510928104109280040895839B2F
:1008A00007C081E090E090937F0480937E040895D8
:1008B00010927F0410927E0408950F931F93CF939C
:1008C000DF9304E015E0C0E0D0E0BE0180E090E0FE
:1008D0000E94F703F801819391938F012196C8300C
:1008E000D10599F7DF91CF911F910F9108950F9343
:1008F0001F93CF93DF9300ED14E0C0E0D0E0BE0182
:1009000081E090E00E94F703F801929382938F01B7
:100910002196C830D10599F7DF91CF911F910F91A2
:1009200008952F923F924F925F926F927F928F9293
:100930009F92AF92BF92CF92DF92EF92FF920F936E
:100940001F93CF93DF93C8E6D1E088E4682E81E05F
:10095000782E94E0892E95E0992E20EF422E24E007
:10096000522E36EA232E34E0332EE880F9800A81B5
:100970001B81F3012081318142815381F401608127
:100980007181072E000C880B990B1F921F92F3E0C8
:10099000FF93E8EEEF93A12CB12C65010E94C32CCC
:1009A0000F900F900F900F9097FD3EC0E880F98058
:1009B0000A811B81F3012081318142815381F4013D
:1009C00060817181072E000C880B990B1F921F927A
:1009D000F3E0FF93E8EEEF930E94C32C0F900F908B
:1009E0000F900F90693E73408105910504F5E880F2
:1009F000F9800A811B81F301208131814281538179
:100A0000F40160817181072E000C880B990B1F92F5
:100A10001F92F3E0FF93E8EEEF930E94C32C0F9038
:100A20000F900F900F9005C060E070E002C068EE7C
:100A300073E0F101619371931F01653F714034F0E0
:100A400081E090E0F2019183808303C0F201118282
:100A500010822496F4E06F0E711C22E0820E911C2D
:100A600082E0480E511C91E0C838D90709F07DCFCB
:100A7000DF91CF911F910F91FF90EF90DF90CF907A
:100A8000BF90AF909F908F907F906F905F904F90AE
:100A90003F902F9008952F923F924F925F926F92C6
:100AA0007F928F929F92AF92BF92CF92DF92EF92FE
:100AB000FF920F931F93CF93DF93C8E2D1E088E0BA
:100AC000682E81E0782E90EC892E94E0992E20EE0D
:100AD000422E24E0522E36E9232E34E0332EE880D5
:100AE000F9800A811B81F301208131814281538188
:100AF000F40160817181072E000C880B990B1F9205
:100B00001F92F3E0FF93E8EEEF93A12CB12C650167
:100B10000E94C32C0F900F900F900F9097FD3EC036
:100B2000E880F9800A811B81F301208131814281B3
:100B30005381F40160817181072E000C880B990BA1
:100B40001F921F92F3E0FF93E8EEEF930E94C32CF5
:100B50000F900F900F900F90693E734081059105A3
:100B600004F5E880F9800A811B81F301208131813D
:100B700042815381F40160817181072E000C880B42
:100B8000990B1F921F92F3E0FF93E8EEEF930E9400
:100B9000C32C0F900F900F900F9005C060E070E095
:100BA00002C068EE73E0F101619371931F01653F2C
:100BB000714034F081E090E0F2019183808303C0C2
:100BC000F201118210822496F4E06F0E711C22E073
:100BD000820E911C82E0480E511C91E0C834D90766
:100BE00009F07DCFDF91CF911F910F91FF90EF9092
:100BF000DF90CF90BF90AF909F908F907F906F903D
:100C00005F904F903F902F9008954F925F926F9218
:100C10007F928F929F92AF92BF92CF92DF92EF928C
:100C2000FF920F931F93CF93DF9380908E04909049
:100C30008F04A0909004B0909104C0908604D0904E
:100C40008704E0908804F090890406EA14E0C0E08C
:100C5000D0E0F801619171918F01072E000C880B93
:100C6000990B0E94A92F2B013C01BE010D2E000CF7
:100C7000880B990B0E94A92F9B01AC01C301B20103
:100C80000E94B6309B01AC01C501B4010E948E2EBA
:100C90004B015C01A3019201C701B6010E948E2E97
:100CA0006B017C01C851DC4FC034FFE1DF0789F6DE
:100CB00080928E0490928F04A0929004B09291043E
:100CC00060938604709387048093880490938904CA
:100CD00020E030E0A9010E94FA2E882361F0A701EC
:100CE0009601C501B4010E94FF2E0E94712F7093DE
:100CF000B9046093B8048090920490909304A090FB
:100D00009404B0909504C0908A04D0908B04E09035
:100D10008C04F0908D0406E914E0C0E0D0E0F80106
:100D2000619171918F01072E000C880B990B0E9425
:100D3000A92F2B013C01BE010D2E000C880B990B35
:100D40000E94A92F9B01AC01C301B2010E94B630E1
:100D50009B01AC01C501B4010E948E2E4B015C01C8
:100D6000A3019201C701B6010E948E2E6B017C0186
:100D7000C851DC4FC034FFE1DF0789F6809292044E
:100D800090929304A0929404B092950460938A0484
:100D900070938B0480938C0490938D0420E030E05A
:100DA000A9010E94FA2E882361F0A7019601C501CE
:100DB000B4010E94FF2E0E94712F7093BB046093B8
:100DC000BA048091B8049091B904209188013091BF
:100DD0008901821B930B9093B7048093B6042091F2
:100DE0008A0130918B014091BA045091BB04241BBD
:100DF000350B3093BD042093BC04919581959109E6
:100E00009093850480938404309383042093820418
:100E10008091F0049091F104892B09F0B8C0809181
:100E2000F2049091F304892B09F0B1C08091F4048D
:100E30009091F504892B09F0AAC08091F604909155
:100E4000F704892B09F0A3C08091F8049091F9046C
:100E5000892B09F09CC08091FA049091FB04892BA6
:100E600009F095C08091FC049091FD04892B09F054
:100E70008EC08091FE049091FF04892B09F087C0F9
:100E800010927904109278041092BF041092BE045C
:100E90006091760470917704072E000C880B990BF3
:100EA0001F921F921F92C8E7CF932AE5A22EB12C62
:100EB000C12CD12C1CEAE12E1DE0F12E00E010E047
:100EC00020E030E0A9010E94C32C70937D04609360
:100ED0007C046091740470917504072E000C880BDB
:100EE000990B1F921F921F92CF9320E030E0A9012F
:100EF0000E94C32C70937B0460937A0410928E043A
:100F000010928F0410929004109291041092920407
:100F100010929304109294041092950410928604F7
:100F200010928704109288041092890410928A0407
:100F300010928B0410928C0410928D048091B60450
:100F40009091B70490930305809302058091BC04AF
:100F50009091BD0490930105809300058DB79EB7D5
:100F600008960FB6F8949EBF0FBE8DBFDF91CF914C
:100F70001F910F91FF90EF90DF90CF90BF90AF90B7
:100F80009F908F907F906F905F904F900895E0EFCB
:100F9000F4E0A0EDB4E0819191918D939D9395E063
:100FA000E030F907C1F76CCFCF92DF92EF92FF925A
:100FB0000F931F93CF93DF93CDB7DEB72C970FB668
:100FC000F894DEBF0FBECDBF8C0163EE72E0CE01A0
:100FD00007960E94732D64E4C8010E94242E7C01B0
:100FE00060E5C8010E94242EA7014F5F5F4F9C015E
:100FF000B801CE0101960E94282EBE016F5F7F4F7F
:10100000CE0107960E94E52DCE0101960E94052D86
:10101000CE0107960E946E2E8AE5E82E84E0F82E17
:10102000F7017183608360E5C8010E94242E6C0182
:1010300061E6C8010E94242EA6014F5F5F4F9C010C
:10104000B801CE0101960E94282EBE016F5F7F4F2E
:10105000CE0107960E94E52DCE0101960E94052D36
:10106000CE0107960E946E2EF7017187608761E6B8
:10107000C8010E94242E6C0162E6C8010E94242E41
:10108000A6014F5F5F4F9C01B801CE0101960E94FF
:10109000282EBE016F5F7F4FCE0107960E94E52D7F
:1010A000CE0101960E94052DCE0107960E946E2E5C
:1010B000F7017387628762E6C8010E94242E6C01E3
:1010C00063E6C8010E94242EA6014F5F5F4F9C017A
:1010D000B801CE0101960E94282EBE016F5F7F4F9E
:1010E000CE0107960E94E52DCE0101960E94052DA6
:1010F000CE0107960E946E2EF7017587648763E61E
:10110000C8010E94242E6C0164E6C8010E94242EAE
:10111000A6014F5F5F4F9C01B801CE0101960E946E
:10112000282EBE016F5F7F4FCE0107960E94E52DEE
:10113000CE0101960E94052DCE0107960E946E2ECB
:10114000F7017787668764E6C8010E94242E6C0148
:101150006DE6C8010E94242EA6014F5F5F4F9C01DF
:10116000B801CE0101960E94282EBE016F5F7F4F0D
:10117000CE0107960E94E52DCE0101960E94052D15
:10118000CE0107960E946E2EF701718F608FCE01FF
:1011900007960E94052D2C960FB6F894DEBF0FBE61
:1011A000CDBFDF91CF911F910F91FF90EF90DF9016
:1011B000CF9008956F927F928F929F92AF92BF923D
:1011C000CF92DF92EF92FF920F931F93CF93DF9313
:1011D000CDB7DEB72C970FB6F894DEBF0FBECDBFEC
:1011E0008C0163EE72E0CE0107960E94732DF80128
:1011F00062817381CE0107960E94F12DBE01695F65
:101200007F4FCE0101960E94DC2DCE0101960E94F7
:10121000D407CE0101960E94052DC0906204D090A3
:101220006304DBBCCABCE0906404F0906504F092F7
:101230008500E09284000091660410916704109389
:10124000870000938600609068047090690479BC00
:1012500068BCE0915A04F0915B04CF0168EE73E042
:101260000E9433314B0170936B0460936A04CF0189
:1012700064E670E00E943331CB012AE030E0B9012E
:101280000E9433315C0190936D0480936C04CF0114
:10129000B9010E943331FC01CB01B9010E94333105
:1012A00090936F0480936E04F0937104E093700444
:1012B0008A94892819F4A898A99A02C0A89AA9988A
:1012C000AA94AB2819F4AF9AAE9802C0AF98AE9A20
:1012D00080916E0490916F04019719F4AD9AAC98C7
:1012E00002C0AD98AC9A80917004909171040197FE
:1012F00019F4AA98AB9A02C0AA9AAB98CD2871F4B7
:10130000EF2861F4012B51F4672841F4AF9AAE9AAB
:10131000AD9AAC9AAA9AAB9AA89AA99ACE010796C6
:101320000E94052D2C960FB6F894DEBF0FBECDBFE0
:10133000DF91CF911F910F91FF90EF90DF90CF90B1
:10134000BF90AF909F908F907F906F90089526E010
:1013500040E051EE60E070E082EE9AE00E949C2B4B
:1013600089E19AE00E94C21E1ABA8FEF87BB88BB40
:101370009BB397629BBB909165009F6090936500C3
:1013800084BB81B3806C81BB82B3806C82BB1698B6
:101390001E9A61E08BE595E00E94D42689B78064AF
:1013A00089BF8AB780628ABF8AB78F7E8ABF7894E6
:1013B00084EF91E090935E0580935D050E94C203E7
:1013C00040916B0550916C0560916D0570916E05B3
:1013D00026E08091690590916A050E949C2B1092ED
:1013E000E4091092E3091092E6091092E5091092BF
:1013F000EA091092E9091092E8091092E709E1EB75
:10140000F9E080E090E021913191232B81F4FC01FF
:10141000EE0FFF1FEF54F64F28E434E031832083B2
:101420008C599F4F90934B0480934A0404C00196BB
:101430008931910541F7EFE7F9E080E090E02191F3
:101440003191232BB1F4FC01EE0FFF1FE158F64F51
:101450002EE334E03183208383589F4F90934304DD
:101460008093420487E695E090934504809344047A
:1014700004C001968931910511F740E050E0BA01AE
:101480008BE595E00E9481240E948D030C94A403B7
:1014900061E087E00E94272A60E087E00E94632ADB
:1014A0008AE08A95F1F700C061E087E00E94632A34
:1014B0009AE19A95F1F700C060E087E00E94632A04
:1014C00060E087E00E94272A20E432E44FE050E009
:1014D00061E087E00E94932A60931A0570931B05D0
:1014E00080931C0590931D050E94A92F2EEB36E3D7
:1014F00047EE51E40E94FF2E20E030E040E05FE341
:101500000E94B630609316057093170580931805F6
:10151000909319058FE19EE40197F1F700C0000058
:1015200008951F920F920FB60F9211241092070187
:10153000109206010F900FBE0F901F901895CF923A
:10154000DF92EF92FF9220E030E06A017B01022EF1
:1015500004C0F694E794D794C7940A94D2F7FC0198
:10156000C192CF01285F3F4F2032310571F7FF90C4
:10157000EF90DF90CF900895EF92FF920F931F931B
:10158000CF93DF937C018B01DC011296ED91FC91EE
:101590001397EF0109900020E9F72197CE1BDF0B8D
:1015A000AE0160E070E0C8010E949F0AF70162810D
:1015B0007381AE01C80104960E940134CE010496E5
:1015C000DF91CF911F910F91FF90EF9008954F926F
:1015D0005F926F927F92AF92BF92CF92DF92EF9223
:1015E000FF920F931F93CF93DF93EC017B018A81CE
:1015F000FB0180838B8181838C8182838D818383B6
:10160000DB01179640E050E0BA01E4E0F0E04A80E8
:101610005B806C807D808F010C5F1F4F44155505EA
:1016200066057705C0F48A859B85E80FF91F349716
:10163000D080218192818381FD013397D0823196C0
:101640002083319690838C93F8014F5F5F4F6F4FEB
:101650007F4F1496DCCFEE0DFF1D8C8580838D852A
:1016600081838E8582838F85838380E090E040E054
:1016700050E0BA014C845D846E847F84F701E00FF2
:10168000F11F0C5F1F4F4415550566057705B8F42B
:10169000AC89BD89A80FB91FCC901196DC90119729
:1016A00012963C91129713962C91C082D18232836C
:1016B00023834F5F5F4F6F4F7F4F0496DBCF8E8941
:1016C00080838F898183888D8283898D8383412C58
:1016D000512C32018E899F89A88DB98D48165906E3
:1016E0006A067B0680F55201AA0CBB1CEC8DFD8DB1
:1016F000EA0DFB1DA081B181FD0101900020E9F7F9
:1017000031976F01CA1ADB0AA60160E070E0C701D9
:10171000800F911F0E949F0A0C5F1F4F8C8D9D8D23
:10172000FC01EA0DFB1D60817181A601C701800FDC
:10173000911F0E9401340C0D1D1DFFEF4F1A5F0A0F
:101740006F0A7F0AC7CFC801DF91CF911F910F9118
:10175000FF90EF90DF90CF90BF90AF907F906F9011
:101760005F904F900895EF92FF920F931F93CF9346
:10177000DF938C017B01EC018A81FB018193AB81BA
:10178000BC81ED0109900020E9F72197CA1BDB0B12
:10179000AE0160E070E0CF010E949F0AF801638112
:1017A0007481AE01C70105960E940134CE010596F1
:1017B000DF91CF911F910F91FF90EF900895CF92FD
:1017C000DF92EF92FF920F931F93CF93DF936C0101
:1017D000EB01FC018281888383818983A481B581A7
:1017E000FD0101900020E9F731978F010A1B1B0BC7
:1017F000A80160E070E0CE0102960E949F0AF60107
:1018000064817581A801CE0106960E940134C80149
:101810000696F601A681B781FD0101900020E9F747
:1018200031977F01EA1AFB0AA70160E070E08C0F94
:101830009D1F0E949F0A065F1F4FF60166817781F8
:10184000A701CE01800F911F0E9401340E0D1F1DB4
:10185000F601A085B185FD0101900020E9F73197DF
:101860007F01EA1AFB0AA70160E070E0CE01800F59
:10187000911F0E949F0A0C5F1F4FF60160857185C2
:10188000A701CE01800F911F0E940134C8018E0D67
:101890009F1DF6016285438534852585C80FD91FB4
:1018A000688349833A832B830496DF91CF911F91FC
:1018B0000F91FF90EF90DF90CF900895CF92DF923D
:1018C000EF92FF92FC011082118212821382DB01DF
:1018D00020E030E04D9150E0022E02C0440F551F31
:1018E0000A94E2F7052E000C660B770BC080D180BE
:1018F000E280F3804C295D296E297F294083518342
:1019000062837383285F3F4F2032310519F7FF90C0
:10191000EF90DF90CF9008958F929F92AF92BF92F9
:10192000CF92DF92EF92FF920F931F93CF93DF93AB
:1019300000D000D0CDB7DEB77C018B01FB018191D7
:10194000BF01F7018283CE0101960E945E0C89815E
:101950009A81AB81BC814C015D01F5E08F0E911C39
:10196000A11CB11C680125E0C20ED11CA601401BC0
:10197000510B60E070E0481559056A057B0548F495
:10198000F60141916F019F0122503109F901408315
:10199000EDCFF801E80FF91F14820C5F1F4FF7011C
:1019A0001483038305960F900F900F900F90DF9193
:1019B000CF911F910F91FF90EF90DF90CF90BF904C
:1019C000AF909F908F9008958F929F92AF92BF9209
:1019D000CF92DF92EF92FF920F931F93CF93DF93FB
:1019E00000D000D0CDB7DEB77C018B01CE010196CF
:1019F0000E945E0C89819A81AB81BC814C015D01A2
:101A000024E0820E911CA11CB11C6801E4E0CE0E02
:101A1000D11CA601401B510B60E070E04815590530
:101A20006A057B0548F4F60141916F019F01225040
:101A30003109F9014083EDCFF801E80FF91F138256
:101A40000D5F1F4FF7011383028304960F900F90D1
:101A50000F900F90DF91CF911F910F91FF90EF901A
:101A6000DF90CF90BF90AF909F908F9008950F938D
:101A70001F93CF93DF938C01EC012696CE010E9439
:101A8000E40CD8011A96ED91FC911B97CE01DF91E1
:101A9000CF911F910F9109944F925F926F927F9215
:101AA0008F929F92AF92BF92CF92DF92EF92FF926E
:101AB0000F931F93CF93DF93CDB7DEB72C970FB65D
:101AC000F894DEBF0FBECDBF7C018B01DB018C9192
:101AD00090E0F7019383828311962C91922B93834C
:101AE00082836E5F7F4FCE0109960E945E0C8984CF
:101AF0009A84AB84BC84B501A4014A5F5F4F6F4FE9
:101B00007F4FF8013696CF01801B910BA0E0B0E02B
:101B100084179507A607B70728F48191DF0112976C
:101B20008C93F1CFF801E80DF91D1582C8010596D7
:101B3000D70115969C938E931497B4016A5F7F4FDB
:101B4000600F711FCE0105960E945E0CBAE08B0EED
:101B5000911C4D815E816F8178852401092C000CD8
:101B600066087708440E551E661E771EF801E80DBC
:101B7000F91DCF01801B910BA0E0B0E08415950505
:101B8000A605B70528F48191DF0112978C93F1CF58
:101B90006401C40ED51EB8016C0D7D1DFB0131978B
:101BA0001082C4010197800F911FF70197838683EC
:101BB000CE0101960E945E0CA6014C5F5F4F4980EA
:101BC0005A806B807C804A01052E000CAA08BB0855
:101BD000840C951CA61CB71CF801E40FF51F9F018F
:101BE000201B310BC901A0E0B0E088159905AA05BA
:101BF000BB0528F48191DF0112978C93F0CFCA01C5
:101C0000840D951DF801E80FF91FDF0111971C9253
:101C10009A0121503109020F131FD70119961C9305
:101C20000E9318972181428150E060E070E0BA0184
:101C300055274427522B2081422B2381722BF701F9
:101C4000428753876487758704962C960FB6F8945D
:101C5000DEBF0FBECDBFDF91CF911F910F91FF90DF
:101C6000EF90DF90CF90BF90AF909F908F907F903C
:101C70006F905F904F9008952F923F924F925F9296
:101C80006F927F928F929F92AF92BF92CF92DF928C
:101C9000EF92FF920F931F93CF93DF93CDB7DEB7F1
:101CA00028970FB6F894DEBF0FBECDBF8C015B0145
:101CB000DB018C9111969C9111971296CC90129702
:101CC000D12CE12CF12C7601DD24CC24D92AC82A90
:101CD00013968C91F82AF80182819381A481B581B1
:101CE0008C159D05AE05BF0570F4B601660F771F14
:101CF000660F771F828593850E94EC32D8011B9670
:101D00009C938E931A97F801C282D382E482F58263
:101D1000D5011796C12CD12C7601F4E08F2E912C91
:101D200098012A5F3F4FF801428153816481758198
:101D3000C4010496C416D506E606F70680F54C9154
:101D400050E060E070E0742F662755274427FD01BE
:101D50003397E0814E2BFD013297E0815E2BFD0130
:101D60003197E0816E2BF801468357836087718736
:101D70004C01089742855385840F951FF9014081D6
:101D8000518162817381FC0140835183628373833B
:101D9000FFEFCF1ADF0AEF0AFF0A1496C4CFF4014F
:101DA000EA0DFB1D20813181C280D12CE12CF12C68
:101DB0007601DD24CC24D32AC22A2381F22A4C01C5
:101DC000F80184859585A685B7858C159D05AE059A
:101DD000BF0570F4B601660F771F660F771F848901
:101DE00095890E94EC32D80155969C938E93549716
:101DF000F801C486D586E686F78620E030E0C12C5F
:101E0000D12C7601D8015096F80144855585668518
:101E10007785F501E80DF91DC4010496C416D506B1
:101E2000E606F70648F59180428150E060E070E0F8
:101E3000BA0155274427592990804929E3817E2BEF
:101E4000F801408B518B628B738B4C01848995898F
:101E5000FC01E20FF31F4D915D916D917C91139701
:101E60004083518362837383FFEFCF1ADF0AEF0A47
:101E7000FF0A2C5F3F4FC8CF20813181C280D12C17
:101E8000E12CF12C7601DD24CC24D32AC22A238133
:101E9000F22A4C01F80186899789A08DB18D8C15A5
:101EA0009D05AE05BF0560F4B601660F771F848DF2
:101EB000958D0E94EC32D8015D969C938E935C9731
:101EC000F801C68AD78AE08EF18E412C512C32015E
:101ED0001801FAE12F0E311CF80186899789A08D2F
:101EE000B18D481659066A067B0608F05AC0B5013E
:101EF000680D791DCE0101960E945E0C94012C5F45
:101F00003F4FC980DA80EB80FC80C901032E000CB2
:101F1000AA0BBB0BAC01BD014C0D5D1D6E1D7F1DE1
:101F20004D835E836F837887F501E20FF31FAF0166
:101F30004A195B09CA01A0E0B0E04D815E816F8162
:101F4000788584179507A607B70728F44191DF0124
:101F500012974C93ECCFC9018C0D9D1DF501E80F34
:101F6000F91F31971082215031092A0D3B1DD801EC
:101F70005B963C932E935A974C01C201880F991F90
:101F80005C96ED91FC915D97E80FF91FD1018D9161
:101F90009C9191838083BFEF4B1A5B0A6B0A7B0A8B
:101FA0009BCFC40128960FB6F894DEBF0FBECDBFFD
:101FB000DF91CF911F910F91FF90EF90DF90CF9025
:101FC000BF90AF909F908F907F906F905F904F9059
:101FD0003F902F900895FC01808191810C948B2E6D
:101FE0002CEB33E0FC013183208340960C94EB0F03
:101FF000CF93DF93EC010E94F00FCE01DF91CF91E0
:102000000C948B2EDB012D913C911197FC013183B7
:102010002083F901369720813181FC01E20FF31F03
:1020200012968D919C9113979183808381E290E029
:1020300094838383548B438B1582158A0895FC0106
:1020400081E290E09683858317821086118686E070
:1020500090E0A0E0B0E082879387A487B5871686DA
:102060001786108A118A80E2828B148A138A768BF3
:10207000658B178A8AEA93E09183808384EB93E0EF
:102080009383828308956115710521F4DA012D91FE
:102090003C9102C02AEA33E0FC01318320836115C0
:1020A000710529F4F90136972081318102C022E0BF
:1020B00030E0FC01E20FF31F6115710531F4DA0124
:1020C00012964D915C91139702C044EB53E05183FB
:1020D000408360FD0C948B2E089540E050E062E058
:1020E00070E00C944310DC01ED91FC913697208157
:1020F0003181820F931F0C946D10CF93DF93EC010D
:102100000E946D10CE01DF91CF910C948B2EDC01DB
:10211000ED91FC91369720813181820F931F0C94B1
:102120007D10AB0160E070E00C944310EF92FF92E1
:102130000F931F93CF93DF938C017B01EA01672BF1
:1021400019F48881998102C08AEF93E0F8019183A4
:102150008083E114F10429F4FC0136978081918198
:1021600002C08DE190E0F801E80FF91FE114F104DD
:1021700019F42E813F8102C024E034E031832083B2
:10218000C80102960E94F00FE114F10421F4BE018F
:102190006E5F7F4F02C06EEE73E0C8010E94911027
:1021A000E0FE09C0C801DF91CF911F910F91FF9010
:1021B000EF900C948B2EDF91CF911F910F91FF9098
:1021C000EF900895AB0160E070E00C94961040E051
:1021D00050E062E070E00C949610DC01ED91FC910F
:1021E000369720813181820F931F0C94E710CF9393
:1021F000DF93EC010E94E710CE01DF91CF910C94A8
:102200008B2EDC01ED91FC91369720813181820F7C
:10221000931F0C94F7100F931F93CF93DF93CDB7B9
:10222000DEB72A970FB6F894DEBF0FBECDBF8C0184
:102230008AE493E09A8389831B821C821D821E821A
:102240001F82188619861A86D801ED91FC9101909B
:10225000F081E02DAE014F5F5F4F6AE070E0C80192
:1022600009950E94C129F801608771878287938749
:102270002A960FB6F894DEBF0FBECDBFDF91CF9187
:102280001F910F9108954F925F926F927F92AF923C
:10229000BF92CF92DF92EF92FF920F931F93CF9353
:1022A000DF93CDB7DEB72E970FB6F894DEBF0FBE23
:1022B000CDBF8C0186E593E09A8389831C821B82C3
:1022C00083EE92E09E838D8398878F839A87898798
:1022D0001B861C861D861E86680188EEC81A8BEF39
:1022E000D80A7801A6EBEA1AABEFFA0A412C92E081
:1022F000592E612C712CD601ED91FC913097B9F1DA
:10230000848195819C838B83808191819E838D8341
:1023100082819381DC01ED91FC910480F581E02DB7
:10232000099598878F83D601ED91FC9182819381E5
:10233000DC01ED91FC910680F781E02D09959A87EB
:1023400089874B865C866D867E86F80180819181C7
:10235000F601A081B18118966D917C911997DC01ED
:10236000ED91FC91AE014F5F5F4FC8010995B2E05E
:10237000CB0ED11CCE14DF0409F0BDCF6801E4E818
:10238000CE1AEBEFDE0A412C82E0582E612C712C24
:10239000F701A081B1811097E1F112968D919C9186
:1023A00013979C838B8314968D919C9115979E8394
:1023B0008D83ED91FC9111970480F581E02DCD0185
:1023C000099598878F83D7018D919C91DC01ED91C0
:1023D000FC910680F781E02D09959A8789874B86C5
:1023E0005C866D867E86D801ED91FC91A080B180DF
:1023F000F70180819181DC01ED91FC910280F381F4
:10240000E02D0995AE014F5F5F4FBC01C801F5019A
:102410000995F2E0EF0EF11CEC14FD0409F0B8CFC1
:10242000F801EA57FB4F81E080832E960FB6F894AF
:10243000DEBF0FBECDBFDF91CF911F910F91FF90F7
:10244000EF90DF90CF90BF90AF907F906F905F90B4
:102450004F9008958F929F92AF92BF92CF92DF924A
:10246000EF92FF920F931F93CF93DF93CDB7DEB719
:102470002A970FB6F894DEBF0FBECDBF8C015B016B
:102480008AE493E09A8389831B821C821D821E82C8
:102490001F82188619861A860E94C129F801C084F5
:1024A000D184E284F3849B01AC012C193D094E09CF
:1024B0005F0969017A01B501CE0101960E945301BD
:1024C00088EE882E83E0982EA12CB12CC701B6018E
:1024D000A50194010E944731CB80DC80ED80FE8015
:1024E000C20ED31EE41EF51ECB82DC82ED82FE827C
:1024F0009B01AC0160E472E48FE090E00E94233124
:10250000CF80D884E984FA84DC01CB018C0D9D1D39
:10251000AE1DBF1D8F839887A987BA870E94C129E6
:10252000CB80DC80ED80FE8031E0C31AD108E10869
:10253000F108A50194010E944731C21AD30AE40AA6
:10254000F50AF801C486D586E686F786CF80D8845A
:10255000E984FA84F6E3DF1AF5E6EF0AF4ECFF0A01
:102560009B01AC0160E472E48FE090E00E942331B3
:10257000C61AD70AE80AF90AF801C08AD18AE28A9B
:10258000F38AB801605F7F4FC8010C960E94F91D65
:102590000E94C129F801E557FB4F60837183828354
:1025A00093832A960FB6F894DEBF0FBECDBFDF919E
:1025B000CF911F910F91FF90EF90DF90CF90BF9040
:1025C000AF909F908F9008952F923F924F925F927D
:1025D0006F927F928F929F92AF92BF92CF92DF9233
:1025E000EF92FF920F931F93CF93DF93CDB7DEB798
:1025F00060970FB6F894DEBF0FBECDBF988B8F8764
:102600000E94C1294B015C012F85388925573B4F1A
:102610003E832D83F90180819181A281B381A5013F
:102620009401281B390B4A0B5B0BDA01C901893F66
:102630009A42A105B10528F0EF85F889EA57FB4FCA
:1026400010820F85188904581B4FD8018D919C91D9
:10265000892B81F0EF85F889E157FB4F80819181CB
:10266000A281B38188159905AA05BB0518F4F80164
:10267000118210826F847888FCE76F1AFBEF7F0A63
:102680002F85388920583B4F3A832983CF84D888B7
:1026900038E1C30ED11C4F8558894A575B4F588784
:1026A0004F832F8538892C563B4F3A8729874F8592
:1026B00058894D565B4F5C874B87EF84F88852E80A
:1026C000E51A5BEFF50A2F8538892E573B4F3C837F
:1026D0002B834F85588941575B4F5E874D87140187
:1026E000250154E1250E311C411C511CEF85F88950
:1026F00084899589A689B789892B8A2B8B2B89F4A4
:10270000AF85B88912968D919C911397DC01ED915C
:10271000FC910680F781E02D09959C0197FF15C07B
:1027200037C10E94C129DC01CB0188199909AA0986
:10273000BB09EF85F8892489358946895789281787
:1027400039074A075B07E0F64BC1D3018D919C9195
:102750001197820F931F8D939C93F80140815181B3
:1027600047305105D9F4AB81BC818D919C91119773
:10277000AC014F5F5F4F4D935C93EF85F889E80F95
:10278000F91F208FF70180819181019791838083C8
:10279000892B09F0ABCF88E090E02FC0411551059F
:1027A00021F52F3F310569F481E090E0F801918334
:1027B0008083AD85BE852D923D924D925C9213979C
:1027C00095CF0E94C129DC01CB0188199909AA097A
:1027D000BB0989389341A105B10508F487CFEF857E
:1027E000F889EA57FB4F1082FBC041305105B1F424
:1027F0002E3F310531F482E090E0D8018D939C9317
:1028000075CFF80111821082AF81B8858C9181114A
:102810006DCF8F8598890E940B1168CF423051058A
:1028200069F4F70131832083AB81BC811D921C9236
:1028300083E090E0F801918380832EC043305105FE
:1028400061F4322F2227F70180819181280F391FEF
:102850003183208384E090E0D0CF4430510581F46F
:1028600060E071E00E9433318F3F910531F485E0E3
:1028700090E0F8019183808339CF1182108236CFA6
:102880004530510569F4E981FA8131832083E6E01E
:10289000F0E0D801ED93FC93D3012D933C9326CF28
:1028A0004630510599F4322F2227E981FA8180813F
:1028B0009181280F391F31832083E7E0F0E0D801B0
:1028C000ED93FC93D7018D919C9162CF48305105D7
:1028D00009F00CCFF8011182108260E071E00E94D3
:1028E00033318F3F910509F001CFA981BA818D91D4
:1028F0009C910097C9F48F8598890E940B118F8550
:1029000098890E944311EF85F889E957FB4F80822F
:102910009182A282B382ED81FE8180829182A28225
:10292000B3828FEF9FEF61C08A30910531F4B60119
:102930008F8598890E942A12D9CE8630910551F44C
:10294000B60189859A850E943C0E81E0AB85BC85E5
:102950008C93CCCE8B30910521F4EF81F8851082D9
:10296000C5CEFC01EF53FE4FEE0FFF1F2F853889B8
:10297000E20FF31F80819181009709F4B7CEDC014B
:10298000ED91FC910190F081E02DB6010995AECE5C
:10299000EF85F889EA57FB4F8081882321F10F8565
:1029A000188909571B4FF80180819181A281B38159
:1029B000A5019401281B390B4A0B5B0BDA01C901F5
:1029C000853C9940A105B10570F08F8598890E94DA
:1029D0000B11D8018D929D92AD92BC92139703C0BA
:1029E0008EEF9FEF02C080E090E060960FB6F89403
:1029F000DEBF0FBECDBFDF91CF911F910F91FF9032
:102A0000EF90DF90CF90BF90AF909F908F907F908E
:102A10006F905F904F903F902F900895EF92FF92AC
:102A20000F931F93CF93DF93EC018C819D818617C9
:102A3000970710F57A018B018A819B81861797078A
:102A400040F4685F7F4F8617970718F4CE010E9405
:102A500063038C819D818017910758F4E881F98187
:102A6000E80FF91F309719F0D7012C9120830196B8
:102A7000F2CF1D830C8305C06817790710F47D839E
:102A80006C83DF91CF911F910F91FF90EF9008958C
:102A9000AF92BF92CF92DF92EF92FF920F931F936C
:102AA000CF93DF931F92CDB7DEB78C016B01FC0192
:102AB0001182108288E090E09383828315821482D1
:102AC0000E94892EF80191838083C114D104F1F012
:102AD000F60101900020E9F731977F01EC18FD081D
:102AE000F801A480B5801982B7016A0D7B1DAE0183
:102AF0004F5F5F4FC8010E940E15F80180819181E0
:102B0000A701B6018A0D9B1D0E9415040F90DF914D
:102B1000CF911F910F91FF90EF90DF90CF90BF90DA
:102B2000AF900895EF92FF920F931F93CF93DF938F
:102B30001F92CDB7DEB7FC01922F9870822F807163
:102B40002871283119F44230A9F43BC0413011F406
:102B50008B0116C0423081F4882329F0048915893D
:102B6000060F171F02C000E010E0992349F0078903
:102B7000108D04C0413061F304891589060F171FB9
:102B80002489358920173107E0F0992311F0108F3F
:102B9000078B8823A1F07F011982AE014F5F5F4F41
:102BA000B801CF0140960E940E15F70184899589DE
:102BB0002789308D8217930710F4908F878BC80177
:102BC00002C08FEF9FEF0F90DF91CF911F910F9178
:102BD000FF90EF900895AF92BF92CF92DF92EF9265
:102BE000FF920F931F93CF93DF931F92CDB7DEB762
:102BF0008C016B017A015901FC011182108288E07D
:102C000090E093838283158214820E94892EF801BA
:102C100091838083F601848195818E159F0520F430
:102C200080E090E00E94E51DF60184819581198283
:102C3000BC016E197F09A616B70608F4B501AE01EE
:102C40004F5F5F4FC8010E940E15F8014481558106
:102C5000F601608171816E0D7F1DF8018081918187
:102C60000E9415040F90DF91CF911F910F91FF905B
:102C7000EF90DF90CF90BF90AF900895BF92CF922A
:102C8000DF92EF92FF920F931F93CF93DF931F92E8
:102C9000CDB7DEB77C018B016A01B22EAC014E5F6D
:102CA0005F4F6E5F7F4F0E940210F801808191811B
:102CB000F70191838083F80126813781FC013697E3
:102CC0000190F081E02DEE0DFF1D31832083F7018F
:102CD0001682158210861782128611861486138634
:102CE00016861586108A1786118A8CEB93E09383DB
:102CF00082838E010F5F1F4F2FEF3FEF40E050E0C8
:102D0000B601C70142960E94EB15F701128E118E93
:102D1000148E138EB1FE04C086899789948F838F99
:102D2000F701B18A0F90DF91CF911F910F91FF9022
:102D3000EF90DF90CF90BF900895AF92BF92DF9257
:102D4000EF92FF920F931F93CF93DF931F92CDB714
:102D5000DEB77C015B01D42EAC014E5F5F4F81E298
:102D600090E0F70191A380A312A213A214A286E01F
:102D700090E0A0E0B0E085A396A3A7A3B0A711A61A
:102D800012A613A614A682E993E0968F858F80E29F
:102D900085A717A616A651AB40AB12AA6EEE73E03C
:102DA000C7010E9402108AEF93E0F70191838083AC
:102DB00084E094E0968F858F1682158210861782A4
:102DC000128611861486138616861586108A178633
:102DD000118A8CEB93E0938382838E010F5F1F4FE8
:102DE0002FEF3FEF40E050E0B501C70142960E944F
:102DF000EB15F701128E118E148E138ED1FE04C0C6
:102E000086899789948F838FF701D18A0F90DF91FC
:102E1000CF911F910F91FF90EF90DF90BF90AF90F7
:102E20000895CF92DF92EF92FF920F931F93CF936B
:102E3000DF931F92CDB7DEB78C017B01FC01C4800C
:102E4000D580FB01648175816C0D7D1D1982AE01F9
:102E50004F5F5F4F0E940E15F701448155816081DD
:102E60007181F801808191818C0D9D1D0E94150456
:102E7000C8010F90DF91CF911F910F91FF90EF90BC
:102E8000DF90CF900895AF92BF92CF92DF92EF92F2
:102E9000FF920F931F93CF93DF931F92CDB7DEB7AF
:102EA0007C016B01FB0101900020E9F731978F0154
:102EB000061B170BFC01A480B5801982B8016A0DAE
:102EC0007B1DAE014F5F5F4F0E940E15F7018081A1
:102ED0009181A801B6018A0D9B1D0E941504C701AE
:102EE0000F90DF91CF911F910F91FF90EF90DF90A6
:102EF000CF90BF90AF900895EF92FF920F931F93E2
:102F0000CF93DF931F92CDB7DEB78C017B016F3F6C
:102F10007F4F19F480E090E028C0F801878584FF96
:102F200022C0F801818D928D648975898617970773
:102F300058F0E9826F5F7F4FAE014F5F5F4FC8016E
:102F400040960E940E1507C0F80120893189F901C9
:102F5000E80FF91FE082F801818D928D0196928F22
:102F6000818FC70102C08FEF9FEF0F90DF91CF914C
:102F70001F910F91FF90EF9008952F923F924F92E3
:102F80005F926F927F928F929F92AF92BF92CF92F9
:102F9000DF92EF92FF920F931F93CF93DF93CDB702
:102FA000DEB72C970FB6F894DEBF0FBECDBF8C01F5
:102FB0007B0129013A015901FC01C18CD28C1A8292
:102FC000198288E090E09C838B831E821D820E9480
:102FD000892E9A838983FFEF4F165F0621F480E0E4
:102FE00090E00E94E51DE114F10481F01A86AE0123
:102FF000465F5F4FB201CE0101960E940E154D81D2
:103000005E81B70189819A810E941504F801848943
:1030100095898C159D0520F480E090E00E94E51DC7
:10302000F801848995899C012C193D0972012A15A2
:103030003B0508F47901AD80BE808E199F0995018A
:10304000209530958217930720F080E090E00E9451
:10305000E71DF8012488358841018A0C9B1CC801B2
:1030600040969C878B87EA14FB0448F41886AE01CF
:10307000485F5F4FB4016E197F090E940E15F80179
:1030800080899189A1014C195D094E195F09B70129
:103090006C0D7D1D680F791F95012C0D3D1D820F54
:1030A000931F0E940A3469817A81F801808991898D
:1030B000A5018C0D9D1D0E9415041986B4016E1981
:1030C0007F09AE01475F5F4F8B859C850E940E157F
:1030D000CE0101960E94EB0FF801818D928D840D37
:1030E000951D928F818FC301B2012C960FB6F89473
:1030F000DEBF0FBECDBFDF91CF911F910F91FF902B
:10310000EF90DF90CF90BF90AF909F908F907F9087
:103110006F905F904F903F902F900895FC019581A4
:10312000692B83899489892B09F4616065830895EB
:10313000CF93DF93EC01E881F98136970190F0811C
:10314000E02DE80FF91F83899489DC01ED91FC9152
:103150000484F585E02D0995019651F4E881F98103
:1031600036978081918161E08C0F9D1F0E948E189F
:10317000CE01DF91CF9108951F93CF93DF93EC01A0
:10318000162F8F8580FF0BC0E881F9810084F185BF
:10319000E02D20E144E060E070E0CE010995EB8590
:1031A000FC852D853E85812F90E0E217F30758F4CA
:1031B00010832B853C852F5F3F4F3C872B87DF910A
:1031C000CF911F910895E881F981028CF38DE02D54
:1031D000BC01CE01DF91CF911F910994CF93DF9372
:1031E000EC01E881F98136970190F081E02DE80F3C
:1031F000F91F838994890E94BC18019651F4E881D3
:10320000F98136978081918162E08C0F9D1F0E9429
:103210008E18CE01DF91CF9108952F923F924F9259
:103220005F926F927F928F929F92AF92BF92CF9256
:10323000DF92EF92FF920F931F93CF93DF93EC01F6
:103240003B0149015A01E881F98136970190F081EB
:10325000E02D3296E80FF91FC284D384E484F5840C
:10326000C21AD30AE40AF50A818192818E709927E5
:10327000049721F5160127011214130414041504F0
:1032800094F421E0221A310841085108E881F981BB
:1032900036970190F081E02DEC0FFD1F6089CE0183
:1032A0000E94EE18E9CFD701C601F7FE03C080E007
:1032B00090E0DC01C81AD90AEA0AFB0AE881F98120
:1032C00036970190F081E02DEC0FFD1F03891489E2
:1032D000D8011F968C911F9780FF0BC0ED91FC9138
:1032E0000084F185E02D20E144E060E070E0C80159
:1032F0000995D801ED91FC91008CF18DE02DA5018F
:103300009401B301C80109956F3F7F4F09F444C090
:10331000E881F98136970190F081E02DEC0FFD1FD7
:10332000838194818E7099270297F9F0E881F98161
:10333000369780819181029640E050E0BA018C0F6F
:103340009D1FDF91CF911F910F91FF90EF90DF9024
:10335000CF90BF90AF909F908F907F906F905F9035
:103360004F903F902F900C94E91D1C141D041E04D7
:103370001F04E4F6E1E0CE1AD108E108F108E88183
:10338000F98136970190F081E02DEC0FFD1F6089E7
:10339000CE010E94EE18E9CFE881F981369780814D
:1033A000918162E08C0F9D1F0E948E18B1CFEF9229
:1033B000FF920F931F93CF93DF93CDB7DEB7649740
:1033C0000FB6F894DEBF0FBECDBF8C01DC01ED91CE
:1033D000FC9136970190F081E02DE80FF91F838171
:1033E000948185FD18C086FF05C092FD17C028EEA8
:1033F00032E01FC087FF15C09C012227307292FF68
:1034000005C0232B89F425EF32E013C0232B79F478
:103410002FEF32E00EC024EE32E00BC020EF32E09E
:1034200008C020E030E005C02AEF32E002C02CEEF8
:1034300032E07F936F935F934F933F932F931F924D
:1034400084E18F939E012F5F3F4F79013F932F932C
:103450000E9443349C01990F440B550BB701C801DE
:103460000E940D19D801ED91FC9136970190F081E1
:10347000E02DE00FF11F838194810FB6F894DEBF39
:103480000FBECDBF96FF03C0C8010E949818649676
:103490000FB6F894DEBF0FBECDBFDF91CF911F9165
:1034A0000F91FF90EF900895EF92FF920F931F936B
:1034B000CF93DF93CDB7DEB7EB970FB6F894DEBFAF
:1034C0000FBECDBF7C018B01AE01455C5F4F63EE4B
:1034D00072E0CE01C4960E94481540E1BE016C5CCA
:1034E0007F4FCE0101960E949D16CE01C4960E9488
:1034F000EB0FE981FA8136970190F081E02D81E0B0
:1035000090E08C0F9D1FE80FF91F81899289009729
:1035100011F00E949818A801110F660B770BCE01CD
:1035200001960E94D7198E010C5C1F4F2FEF3FEFC1
:1035300040E050E0BE016D5E7F4FC7010E94EB1579
:10354000CE0101960E94E710C701EB960FB6F894E2
:10355000DEBF0FBECDBFDF91CF911F910F91FF90C6
:10356000EF9008958F929F92AF92BF92CF92DF9289
:10357000EF92FF920F931F93CF93DF93CDB7DEB7F8
:10358000EB970FB6F894DEBF0FBECDBF6C017B0189
:103590005A01AE01455C5F4F63EE72E0CE01C49606
:1035A0000E94481540E1BE016C5C7F4FCE01019640
:1035B0000E949D16CE01C4960E94EB0F8701E12C5C
:1035C000F12CEA14FB0414F5F801819091908F011D
:1035D000E981FA8136970190F081E02D81E090E059
:1035E0008C0F9D1FE80FF91F81899289009711F0B8
:1035F0000E949818A401990C660B770BCE010196D6
:103600000E94D7199FEFE91AF90ADBCF8E010C5CF3
:103610001F4F2FEF3FEF40E050E0BE016D5E7F4F48
:10362000C6010E94EB15CE0101960E94E710C6016B
:10363000EB960FB6F894DEBF0FBECDBFDF91CF91F2
:103640001F910F91FF90EF90DF90CF90BF90AF90C0
:103650009F908F900895CF93DF93CDB7DEB72897D3
:103660000FB6F894DEBF0FBECDBF0E94480A80910E
:10367000220590912305892B21F0109223051092A9
:1036800022051886AE01485F5F4F60E070E08EE172
:1036900095E00E940E1540E050E063EE72E08091EC
:1036A0001E0590911F050E9415040E945D040E9452
:1036B00077040E9491040E944B050E9441040E94DD
:1036C0004F040E9438040E94050663E073E08EE117
:1036D00095E00E944317E0EFF4E0ABE4B5E08191A0
:1036E00091918D939D9325E0E030F207C1F748E07A
:1036F00050E06BE475E0CE0101960E94B21ABE0163
:103700006F5F7F4F8EE195E00E941117CE01019609
:103710000E94EB0F65E073E08EE195E00E94431795
:10372000E0EEF4E0ABE3B5E0819191918D939D9350
:1037300084E0E03FF807C1F748E050E06BE375E054
:10374000CE0101960E94B21ABE016F5F7F4F8EE1DB
:1037500095E00E941117CE0101960E94EB0F67E0E1
:1037600073E08EE195E00E9443176091B60470917A
:10377000B70470933A0560933905CE0101960E9413
:10378000541ABE016F5F7F4F8EE195E00E941117C2
:10379000CE0101960E94EB0F68E273E08EE195E0A6
:1037A0000E9443176091BC047091BD04709338056A
:1037B00060933705CE0101960E94541ABE016F5FD7
:1037C0007F4F8EE195E00E941117CE0101960E9475
:1037D000EB0F69E073E08EE195E00E944317609182
:1037E0008004709181047093360560933505CE0195
:1037F00001960E94541ABE016F5F7F4F8EE195E0E3
:103800000E941117CE0101960E94EB0F6BE073E04E
:103810008EE195E00E94431760917E0470917F04D1
:103820007093340560933305CE0101960E94541ABB
:10383000BE016F5F7F4F8EE195E00E941117CE01B0
:1038400001960E94EB0F60E273E08EE195E00E942A
:10385000431780911405909115058034AFE19A07C4
:103860002CF4909332058093310504C010923205F8
:10387000109231056091310570913205CE010196AB
:103880000E94541ABE016F5F7F4F8EE195E00E9447
:103890001117CE0101960E94EB0F6DE073E08EE1EF
:1038A00095E00E94431720E030E040E251E460914F
:1038B00016057091170580911805909119050E94C1
:1038C000B6300E94E42F0E94712F709330056093F0
:1038D0002F05CE0101960E94541ABE016F5F7F4FE3
:1038E0008EE195E00E941117CE0101960E94EB0F28
:1038F00068E971E08EE195E00E944317609106014E
:1039000070910701CE0101960E94541ABE016F5FAB
:103910007F4F8EE195E00E941117CE0101960E9423
:10392000EB0F68E872E08EE195E00E94431760912A
:103930002205709123056F5F7F4F80912005909144
:1039400021058617970720F48EE195E00E94630316
:10395000E0911E05F0911F058091220590912305AD
:10396000E80FF91F108280911E0590911F0590931A
:103970002E0580932D058091440490914504DC012F
:10398000ED91FC9160914204709143040190F081AB
:10399000E02D4BE255E0099587E695E00E94E412A0
:1039A0000E9B06C081E090E0909307018093060192
:1039B00028960FB6F894DEBF0FBECDBFDF91CF9132
:1039C00008950F931F93CF93DF938AE993E0909329
:1039D00068058093670582EE9AE090936A0580936C
:1039E000690580E091EEA0E0B0E080936B059093D4
:1039F0006C05A0936D05B0936E051092ED098EE6EF
:103A000093E09093FC098093FB091092FD091092BA
:103A1000FE091092FF091092000A1092060A1092F5
:103A2000050A1092070A1092080A1092090A1092C9
:103A30000A0A1092100A10920F0A1092110A10929C
:103A4000120A1092130A1092140A1092180A109275
:103A5000170AEFE7F9E01192119289E0E13BF807CC
:103A6000D1F7E1EBF9E01192119289E0E33EF8071A
:103A7000D1F7EFE7F5E0119287E0EF37F807D9F7D4
:103A8000EFE7F7E0119289E0EF37F807D9F71092E6
:103A90007B0510927C0510927D0510927E058BE5CA
:103AA00095E00E94752106E813E010932C05009321
:103AB0002B05C3EED2E0D0932E05C0932D058AE7E7
:103AC00093E0909326058093250510922705109288
:103AD00028051092290510922A0510921F051092B0
:103AE0001E0588E090E090932105809320051092B8
:103AF0002305109222050E94892E90931F05809322
:103B00001E051093570400935604D0935904C09394
:103B100058048CE094E090934904809348041093F7
:103B20004F0400934E04D0935104C09350048AED87
:103B300098E0909353048093520481E090E0909336
:103B40005504809354048FE093E090934D04809348
:103B50004C0488E193E090933F0480933E048BE211
:103B600095E0909341048093400410924704109292
:103B7000460482E293E0909335048093340485E216
:103B800095E0909337048093360410923D04109290
:103B90003C04DF91CF911F910F9108958EE195E044
:103BA0000C94EB0FFC0181E02081FB019081291333
:103BB00080E00895FC01808191819C0121503109B0
:103BC0002F3F310508F080E008950E94D5330E9410
:103BD000D5330F931F93FC0102851385248535850A
:103BE0004287538764877587C901B8011F910F9178
:103BF0000895CF92DF92EF92FF920F931F93CF938E
:103C0000DF938C01EB01688179818A819B8120E0BF
:103C10003AEC4AE95BE30E944731F801C080D18069
:103C2000E280F380C20ED31EE41EF51EC082D18254
:103C3000E282F382688379838A839B83DF91CF91C9
:103C40001F910F91FF90EF90DF90CF90089580919A
:103C5000490A90E020914A0A821B910908959091A7
:103C60004A0A8091490A981750F4E92FF0E0E55B81
:103C7000F54F208130E09F5F90934A0A02C02FEFFA
:103C80003FEFC9010895E0914A0A8091490AE81777
:103C900030F4F0E0E55BF54F808190E008958FEF20
:103CA0009FEF08950895CF92DF92EF92FF920F93C6
:103CB0001F93CF93DF937C01262F972F8A0180914A
:103CC000250A882391F0C62FD72F6E01C40ED51E6A
:103CD000CC15DD0571F06991D701ED91FC91019052
:103CE000F081E02DC7010995F3CF642F822F0E9448
:103CF0001320C801DF91CF911F910F91FF90EF909A
:103D0000DF90CF900895CF93DF931F92CDB7DEB7AA
:103D100069832091250A2223D1F02091260A20329E
:103D200040F021E030E0FC013383228380E090E02A
:103D300015C08091270AE82FF0E0E85DF54F9981E2
:103D400090838F5F8093270A8093260A05C061E0E5
:103D5000CE0101960E94132081E090E00F90DF9148
:103D6000CF910895FC011382128288EE93E0A0E0C7
:103D7000B0E084839583A683B78388E194E0918340
:103D80008083089510924A0A1092490A1092270AD5
:103D90001092260A0C94571F81E08093250A6093A5
:103DA000480A1092270A1092260A08950F93062FA8
:103DB00021E04091260A68E27AE08091480A0E9458
:103DC000BD1F1092270A1092260A1092250A0F9101
:103DD00008954F925F926F927F92AF92BF92CF926F
:103DE000EF92FF920F931F93CF93DF935C01F62E18
:103DF000D42F28013901EE2021F10E94CC1ECE2DB6
:103E0000C43008F0C3E0C150C0F0D501ED91FC9181
:103E1000B8E0CB9FC0011124A301920104C05695C4
:103E20004795379527958A95D2F7CA01B901019030
:103E3000F081E02DC5010995E6CF60E0C5010E9443
:103E4000D61E4D2FD13208F040E22C2D6BE47AE0E3
:103E50008F2D0E94751F10924A0A8093490ADF91A4
:103E6000CF911F910F91FF90EF90CF90BF90AF90A7
:103E70007F906F905F904F900895CF92EF920F9345
:103E80001F93C22EE12C00E010E098010E94E91E71
:103E90001F910F91EF90CF90089521E00C943D1F5A
:103EA00061E00C94D61E89E19AE00C94B21E109247
:103EB000D80A81E08093D60A1092D50A61E083E1A6
:103EC0000E94632A61E082E10E94632AE1E7F0E058
:103ED00080818E7F808380818D7F808388E4809342
:103EE000700085E4809374000895413208F043C067
:103EF0009091D80A9111FCCF91E09093D80A209329
:103F0000D60A2FEF20936B0A1092B00A240F209349
:103F1000AF0A9093D70A9091D70A880F892B809384
:103F2000D70A8091D50A813061F41092D50A809128
:103F3000D70A809373008091740083FDF8CF85ECDD
:103F400001C085EE809374008091D80A8130E1F33E
:103F50008091B00A841710F44091B00A21EB3AE046
:103F6000FB01D9018A2F821B841718F48D9181934C
:103F7000F9CF842F089580E008950F93413208F01F
:103F80004AC09091D80A9111FCCF32E03093D80A00
:103F90000093D60A3FEF30936B0A1092B00A409319
:103FA000AF0AFB0161EB7AE0DB013A2F361B3417D5
:103FB00018F431913D93F9CF1092D70A3091D70A76
:103FC000880F832B8093D70A8091D50A813061F4C2
:103FD0001092D50A8091D70A809373008091740063
:103FE00083FDF8CF85EC01C085EE80937400222319
:103FF00021F08091D80A8230D1F380916B0A8F3FF3
:1040000079F080916B0A803241F080916B0A8033A5
:1040100031F094E005C091E003C092E001C093E06C
:10402000892F0F910895613298F42091D80A243095
:1040300089F460938D0AFC012FE83AE0D9018A2FB8
:10404000821B861718F481918D93F9CF80E0089533
:1040500081E0089582E0089585ED80937400809159
:10406000740084FDFCCF1092D80A089585EC8093EB
:1040700074001092D80A08951F920F920FB60F92F3
:1040800011240BB60F922F933F934F935F936F932F
:104090007F938F939F93AF93BF93EF93FF93809101
:1040A0007100887F803609F49EC078F5883209F463
:1040B0005DC090F4803109F456C038F4882309F4C7
:1040C000F5C0883009F44FC0F5C0883109F44EC0FE
:1040D000803209F45FC0EEC0803409F46AC058F43D
:1040E000803309F457C0883309F0E4C080936B0A29
:1040F0000E943620DFC0803509F44FC0883509F4AE
:104100005DC0883409F0D6C0D3C0883909F4C4C072
:10411000A8F4883709F467C038F4883609F463C016
:10412000803709F460C0C6C0883809F4B5C080394A
:1041300009F45FC0803809F0BDC05BC0803B09F462
:1041400083C038F4803A09F466C0883A09F47CC028
:10415000B1C0803C09F4A4C0883C09F4A1C0883BEC
:1041600009F487C0A7C08091D70A10C09091B00A07
:104170008091AF0A981770F5E091B00A81E08E0F38
:104180008093B00AF0E0EF54F54F80818093730084
:1041900085EC83C080936B0A8BC0E091B00A81E00C
:1041A0008E0F8093B00A80917300F0E0EF54F54FCA
:1041B00080839091B00A8091AF0A6BC0E091B00A01
:1041C00081E08E0F8093B00A80917300F0E0EF548D
:1041D000F54F80838091D60A81116AC081E0809377
:1041E000D50A84EA5EC083E08093D80A10926C0AF4
:1041F000CFCF80916C0A803208F04EC0E0916C0AFB
:1042000081E08E0F80936C0A80917300F0E0E35997
:10421000F54F8083BDCF0E94362080916C0A80329A
:1042200030F4E0916C0AF0E0E359F54F10826091B0
:104230006C0A70E0E091D10AF091D20A8DE69AE022
:10424000099510926C0A36C084E08093D80A1092C7
:104250008E0A10928D0AE091D30AF091D40A099542
:1042600080918D0A811105C081E080938D0A1092A2
:104270008F0AE0918E0A81E08E0F80938E0AF0E023
:10428000E157F54F80818093730090918E0A809161
:104290008D0A981708F47CCF85E8809374000AC0D3
:1042A00085EC809374001092D80A04C010926B0AB7
:1042B0000E942C20FF91EF91BF91AF919F918F9120
:1042C0007F916F915F914F913F912F910F900BBE16
:1042D0000F900FBE0F901F901895DC01ED91FC918F
:1042E0000190F081E02D642F0994FC0189E2818323
:1042F00013821282148208959C013327A90102C0FF
:10430000440F551F9A95E2F7CA01019608950F933D
:104310001F930097C9F0AC014150510960E070E073
:1043200080E090E08A019B010027012B022B032BE8
:1043300031F076956795579547950196F3CF982F6D
:104340008827842B952B02C080E090E01F910F916D
:1043500008958F929F92AF92BF92CF92DF92EF9289
:10436000FF92CF93DF93EC01A62FB0E020E03FE275
:104370004AE350E00E9491316C507E4F8F4F9F4F27
:1043800028EEC22E23E0D22EE12CF12CA7019601BB
:104390000E94473149015A01B694A7949794879493
:1043A000DE010E949131680D791D8A1D9B1DA701B8
:1043B00096010E944731CA01B901DF91CF91FF9068
:1043C000EF90DF90CF90BF90AF909F908F90089527
:1043D0004F925F926F927F928F929F92AF92BF9215
:1043E000CF92DF92EF92FF924B015C01A42FB0E0DD
:1043F00020E03FE24AE350E00E9491316C507E4F52
:104400008F4F9F4F28EE33E040E050E00E9447314D
:1044100069017A0129013A01769467945794479487
:10442000A8EEB3E0A50194010E949131640D751DC1
:10443000861D971DA70196010E944731CA01B90147
:10444000FF90EF90DF90CF90BF90AF909F908F90B4
:104450007F906F905F904F900895EF92FF921F931F
:10446000CF93DF931F92CDB7DEB77C01162FFC01EF
:10447000618189E19AE049830E94CC1E612F89E124
:104480009AE00E94831E4981642F89E19AE00E948C
:10449000831E89E19AE00E94501FF70180830F90EC
:1044A000DF91CF911F91FF90EF900895CF92DF920F
:1044B000EF92FF921F93CF93DF93EC01162F6901C8
:1044C0007A01698189E19AE00E94CC1E612F89E11D
:1044D0009AE00E94831E4F2D55276627772789E192
:1044E0009AE00E946D214E2D50E060E070E089E17D
:1044F0009AE00E946D214D2D50E060E070E089E16E
:104500009AE00E946D21B701A601552766277727FB
:1045100089E19AE00E946D2189E19AE00E94501F92
:104520008883DF91CF911F91FF90EF90DF90CF9024
:104530000895CF92DF92EF92FF921F93CF93DF9374
:1045400000D0CDB7DEB77C01D62E142FFC016181DF
:1045500089E19AE029835A830E94CC1E6D2D89E15E
:104560009AE00E94831EC12E5A81D52E2981120FF6
:104570001C1541F0F60161916F0189E19AE00E94FA
:10458000831EF6CF89E19AE00E94501FF7018083D5
:104590000F900F90DF91CF911F91FF90EF90DF90E0
:1045A000CF900895EF92FF921F93CF93DF9300D0A7
:1045B000CDB7DEB77C01162FFC01618189E19AE05D
:1045C0004A8359830E94CC1E612F89E19AE00E94A0
:1045D000831E5981652F89E19AE00E94831E4A81DA
:1045E000642F89E19AE00E94831E89E19AE00E948B
:1045F000501FF70180830F900F90DF91CF911F9193
:10460000FF90EF900895CF92DF92EF92FF92CF93B9
:10461000DF93EC016A017B0120E030E0A901C701D2
:10462000B6010E94FA2E87FD1BC028EB3EEF4FEF2C
:1046300053E4C701B6010E94B13018168CF020E097
:1046400030E040E053E4C701B6010E94B6300E945A
:10465000782FAB0164E4CE010E94D22281E001C038
:1046600080E0DF91CF91FF90EF90DF90CF900895A1
:104670001F93CF93DF93EC01162F698189E19AE0B4
:104680000E94CC1E612F89E19AE00E94831E89E17D
:104690009AE00E94501F888341E0698189E19AE095
:1046A0000E944D1F89E19AE00E942F1EDF91CF9159
:1046B0001F910895EF92FF920F931F93CF93DF9373
:1046C000EC017B018A0141E060E80E942D2241E07B
:1046D0006FEFCE010E942D2240E060E0CE010E94EB
:1046E0002D2246E06FEFCE010E942D2263E8CE011D
:1046F0000E943823482F446063E8CE010E942D2297
:1047000047E06FEFCE010E942D2241E061E8CE012B
:104710000E942D2241E060E8CE010E942D224BE64E
:1047200064E9CE010E942D2240E063E8CE010E94A0
:104730002D220E94C1297E836D8363E8CE010E94F1
:104740003823811111C08A819B81892BB1F30E948A
:10475000C1292D813E81621B730B8A819B81861743
:10476000970758F780E03CC041E063E8CE010E9423
:104770002D2262E9CE010E943823982F9F77F701FE
:104780009083982F991F9927991FF801908340E0F3
:1047900061E8CE010E942D2246E06FEFCE010E941B
:1047A0002D2263E8CE010E943823482F4B7F63E817
:1047B000CE010E942D2241E06FEFCE010E942D22FA
:1047C00041E060E0CE010E942D2240E06FEFCE017B
:1047D0000E942D2240E060E8CE010E942D2281E05F
:1047E000DF91CF911F910F91FF90EF900895CF939C
:1047F000DF93EB0161E00E94382384FB992790F955
:10480000988383FB992790F99A8382FB992790F9E3
:10481000998386FB992790F99B83982F991F992755
:10482000991F9C83DF91CF910895CF93DF93EC0183
:10483000462F416060E00E942D220E94C1297E83A4
:104840006D8363E1CE010E943823877089F48A81E9
:104850009B81892BB1F30E94C1292D813E81621B6E
:10486000730B8A819B818617970758F780E00BC0EE
:1048700041E06BE0CE010E942D2240E060E0CE01DD
:104880000E942D2281E0DF91CF910895611571057D
:1048900011F460E504C06130710531F460E70E94F5
:1048A00038238F5F880F08958FEF08951F93CF935C
:1048B000DF93EC01162F698189E19AE00E94CC1EFA
:1048C000612F89E19AE00E94831E89E19AE00E94AB
:1048D000501F888342E0698189E19AE00E944D1F60
:1048E00089E19AE00E942F1ED82F80E0C82F89E12D
:1048F0009AE00E942F1E8C2B9D2BDF91CF911F9150
:104900000895CF92DF92EF92FF92CF93DF93EC0165
:104910006A017B0141E060E80E942D2241E06FEFD7
:10492000CE010E942D2240E060E0CE010E942D22A7
:104930004F8161E9CE010E942D2241E060E0CE016D
:104940000E942D2240E06FEFCE010E942D2240E018
:1049500060E8CE010E942D22C114D104E104F104CB
:10496000A9F068EFCE010E945624009739F0DC01CF
:10497000A70196010E9491316B017C01A70196016C
:1049800064E0CE010E94562244E001C042E060E0B3
:10499000CE01DF91CF91FF90EF90DF90CF900C94FC
:1049A0002D220F931F93CF93DF93EC010E94C12917
:1049B0007E836D8363E1CE010E9438238770A1F46A
:1049C0008A819B81892BB1F30E94C1292D813E816F
:1049D000621B730B8A819B818617970758F781E0CA
:1049E0008C838FEF9FEF0BC06EE1CE010E945624A7
:1049F0008C0141E06BE0CE010E942D22C801DF91C5
:104A0000CF911F910F910895EF92FF920F931F93F3
:104A1000CF93DF938C017B01EA0160E070E00E949C
:104A2000462490E09983888366E4C8010E94382375
:104A3000282F30E0C90101969D838C8368810E94F4
:104A4000A9216A877B878C879D8761E5C8010E94C1
:104A500056240E947C219F838E8368810E94A92115
:104A60006E877F87888B998B60E7C8010E94382307
:104A70008F5F880F90E09B838A8361E7C8010E9463
:104A800056240E947C2199878887F701238122235D
:104A900031F02E813F81821B930B998788876A8131
:104AA000888599850E94A9216A8B7B8B8C8B9D8B35
:104AB000DF91CF911F910F91FF90EF9008958F920A
:104AC0009F92AF92BF92CF92DF92EF92FF920F939D
:104AD0001F93CF93DF93CDB7DEB76B970FB6F894E4
:104AE000DEBF0FBECDBF40322EE452076105710517
:104AF00008F47CC04A015B017C01BE01695E7F4F06
:104B00000E94F723AE014F5F5F4FBE01695E7F4F8A
:104B1000C7010E9404258F89882349F00B851C85D5
:104B20002D853E850A5C144F2F4F3F4F04C008EE81
:104B300018E020E030E0898D882369F08B859C8522
:104B4000AD85BE858E549D4FAF4FBF4F880F991FC7
:104B5000AA1FBB1F0BC0888D882361F08B859C85A5
:104B6000AD85BE858C569D4FAF4FBF4F080F191FA7
:104B70002A1F3B1FCA8CCC2061F08F859889A98998
:104B8000BA898C569D4FAF4FBF4F080F191F2A1F70
:104B90003B1FDB8CDD2039F10A5D1D4F2F4F3F4F4E
:104BA00080169106A206B30608F1C501B401601B88
:104BB000710B820B930B4B810E94E8219B01CC204F
:104BC00021F02F813885260F371FC9010E948721C8
:104BD000AC0161E7C7010E94D222F701808691866D
:104BE000A286B38604C0DD24D39401C0D12C8D2DC0
:104BF0006B960FB6F894DEBF0FBECDBFDF91CF919D
:104C00001F910F91FF90EF90DF90CF90BF90AF90EA
:104C10009F908F900895CF92DF92EF92FF920F9323
:104C20001F93CF93DF93CDB7DEB76B970FB6F89492
:104C3000DEBF0FBECDBF8C01BE01695E7F4F0E94FB
:104C4000F723AE014F5F5F4FBE01695E7F4FC80122
:104C50000E9404258F89882359F08B859C85AD851A
:104C6000BE85BC01CD016C57724F8F4F9F4F04C062
:104C700066E37BE080E090E0298D222379F0CB840D
:104C8000DC84ED84FE8422EBC20E22E0D21EE11C05
:104C9000F11CCC0CDD1CEE1CFF1C0DC0288D22234A
:104CA00071F0CB84DC84ED84FE84E4E9CE0EE2E096
:104CB000DE1EE11CF11C6C0D7D1D8E1D9F1D2A8DBD
:104CC000222371F0CF84D888E988FA88F4E9CF0EDE
:104CD000F2E0DF1EE11CF11C6C0D7D1D8E1D9F1D81
:104CE0002B8D222371F0CB88DC88ED88FE8826E2AC
:104CF000C20E22E0D21EE11CF11C6C0D7D1D8E1D2A
:104D00009F1DF80160877187828793876B960FB626
:104D1000F894DEBF0FBECDBFDF91CF911F910F91F1
:104D2000FF90EF90DF90CF900895CF92DF92EF92B7
:104D3000FF920F931F93CF93DF931F92CDB7DEB7F0
:104D40006C01F62E142F022FFC01618189E19AE09B
:104D500059830E94CC1E6F2D89E19AE00E94831E28
:104D600089E19AE00E94501FF6018083402F618103
:104D700089E19AE00E944D1FE12E5981F52E100F16
:104D80001E1541F089E19AE00E942F1EF7018193E0
:104D90007F01F6CF0F90DF91CF911F910F91FF9080
:104DA000EF90DF90CF900895FF920F931F93CF93D2
:104DB000DF93CDB7DEB728970FB6F894DEBF0FBEEE
:104DC000CDBF8C01662349F069E80E943823482F43
:104DD000416069E8C8010E942D2240E068E8C801EE
:104DE0000E942D2241E060E8C8010E942D2241E08E
:104DF0006FEFC8010E942D2240E060E0C8010E94D0
:104E00002D2261E9C8010E943823F801878341E01F
:104E100060E0C8010E942D2240E06FEFC8010E94AF
:104E20002D2240E060E8C8010E942D2260E6C80102
:104E30000E943823482F426160E6C8010E942D225B
:104E400040E050E060E87EE3C8010E9403234FEF9A
:104E500061E0C8010E942D22AE01495F5F4FBE0193
:104E6000685F7F4FC8010E945A23811102C0F12C54
:104E700031C226E0AE014F5F5F4F60EBC8010E9478
:104E8000952641E06FEFC8010E942D2240E06FE4BB
:104E9000C8010E942D224CE26EE4C8010E942D221E
:104EA00040E06FEFC8010E942D2244EB66EBC80181
:104EB0000E942D228F81811102C040E001C04CE090
:104EC000A88580E090E061E070E0282F2695269587
:104ED0002695582F5770E1E0F0E0EC0FFD1FE20F30
:104EE000F11D841710F09A130AC09B0101C0220F14
:104EF0005A95EAF7209530812323208309C0208129
:104F000030E002C0359527955A95E2F720FD9F5F66
:104F10008F5F8033D1F626E0AE014F5F5F4F60EBCD
:104F2000C8010E94992241E06FEFC8010E942D2222
:104F300040E060E0C8010E942D2240E06FEFC80110
:104F40000E942D2240E069E0C8010E942D2240E02D
:104F500060E1C8010E942D2240E061E1C8010E9489
:104F60002D2241E064E2C8010E942D224FEF65E24C
:104F7000C8010E942D2240E065E7C8010E942D2251
:104F800041E06FEFC8010E942D224CE26EE4C8019F
:104F90000E942D2240E068E4C8010E942D2240E2D8
:104FA00060E3C8010E942D2240E06FEFC8010E941B
:104FB0002D2249E060E3C8010E942D2240E064E513
:104FC000C8010E942D2244E061E3C8010E942D2205
:104FD00043E062E3C8010E942D2243E860E4C80177
:104FE0000E942D2245E266E4C8010E942D2240E085
:104FF00060E6C8010E942D2240E067E2C8010E94DD
:105000002D2246E060E5C8010E942D2240E061E5C6
:10501000C8010E942D2246E962E5C8010E942D22A6
:1050200048E066E5C8010E942D2240E367E5C8011B
:105030000E942D2240E061E6C8010E942D2240E03E
:1050400062E6C8010E942D2240E064E6C8010E9489
:105050002D2240E065E6C8010E942D2240EA66E666
:10506000C8010E942D2241E06FEFC8010E942D224D
:1050700042E362E2C8010E942D2244E167E4C801D4
:105080000E942D224FEF69E4C8010E942D2240E0CA
:105090006AE4C8010E942D2240E06FEFC8010E941F
:1050A0002D224AE06AE7C8010E942D2240E06BE70A
:1050B000C8010E942D2241E268E7C8010E942D220A
:1050C00041E06FEFC8010E942D2244E363E2C80172
:1050D0000E942D2240E062E4C8010E942D224FEF81
:1050E00064E4C8010E942D2246E265E4C8010E94E2
:1050F0002D2245E066E4C8010E942D2240E460E4D0
:10510000C8010E942D2246E06EE0C8010E942D22B7
:105110004AE160E2C8010E942D2240E463E4C80134
:105120000E942D2240E06FEFC8010E942D2243E033
:1051300064E3C8010E942D2244E465E3C8010E9493
:105140002D2241E06FEFC8010E942D2244E061E36F
:10515000C8010E942D2249E06BE4C8010E942D2263
:1051600045E06CE4C8010E942D2244E06DE4C801D2
:105170000E942D2240E06FEFC8010E942D2240E0E6
:1051800064E4C8010E942D2240E265E4C8010E9447
:105190002D2248E067E4C8010E942D2248E268E41D
:1051A000C8010E942D2240E067E6C8010E942D221E
:1051B00044E060E7C8010E942D2241E061E7C80198
:1051C0000E942D224EEF62E7C8010E942D2240E08E
:1051D00066E7C8010E942D2240E067E7C8010E94EF
:1051E0002D2241E06FEFC8010E942D2241E06DE0C9
:1051F000C8010E942D2240E06FEFC8010E942D22BD
:1052000041E060E8C8010E942D2248EF61E0C8013A
:105210000E942D2241E06FEFC8010E942D2241E043
:105220006EE8C8010E942D2241E060E0C8010E94A2
:105230002D2240E06FEFC8010E942D2240E060E87F
:10524000C8010E942D2244E06AE0C8010E942D227C
:1052500064E8C8010E943823482F4F7E64E8C801E3
:105260000E942D2241E06BE0C8010E942D22C8015E
:105270000E940B26F801608771878287938748EE2A
:1052800061E0C8010E942D22F801408551856285A8
:105290007385C8010E945F2541E061E0C8010E945A
:1052A0002D2260E4C8010E941524882309F4DFCD73
:1052B00042E061E0C8010E942D2260E0C8010E9426
:1052C0001524F82E882309F4D2CD48EE61E0C801F8
:1052D0000E942D228F2D28960FB6F894DEBF0FBEA8
:1052E000CDBFDF91CF911F910F91FF9008951F9235
:1052F0000F920FB60F9211242F933F938F939F938A
:10530000AF93BF938091DA0A9091DB0AA091DC0AF7
:10531000B091DD0A3091D90A23E0230F2D3720F414
:105320000196A11DB11D05C026E8230F0296A11DFF
:10533000B11D2093D90A8093DA0A9093DB0AA093D7
:10534000DC0AB093DD0A8091DE0A9091DF0AA09119
:10535000E00AB091E10A0196A11DB11D8093DE0A19
:105360009093DF0AA093E00AB093E10ABF91AF9156
:105370009F918F913F912F910F900FBE0F901F9093
:1053800018952FB7F8946091DA0A7091DB0A809132
:10539000DC0A9091DD0A2FBF0895789483B780646A
:1053A00083BF83B7886083BF83B7846083BF87B7B9
:1053B000816087BF1EBC8EB582608EBD8EB5816058
:1053C0008EBD8FB581608FBD85B5846085BD85B587
:1053D000806485BDEAE8F0E080818260808380811E
:1053E00081608083EBE8F0E0808181608083329A85
:1053F000319A309A379A1AB8089590E0FC013197A3
:10540000EC30F10518F5EA5BFF4F0C9488318FB54D
:105410008F7702C08FB58F7D8FBD08958FB5877F41
:10542000FBCF85B58F7D85BD089583B78F7D83BF05
:10543000089580918B008F7707C080918B008F7DBE
:1054400003C080918B00877F80938B000895CF935A
:10545000DF9390E0FC01E752FF4F2491FC01E25FF3
:10546000FE4F8491882361F190E0880F991FFC0121
:10547000ED59FE4FC591D491FC01ED5AFE4FA59117
:10548000B491611109C09FB7F89488812095822357
:105490008883EC912E230BC0623061F49FB7F8949F
:1054A0003881822F809583238883EC912E2B2C9337
:1054B0009FBF06C08FB7F894E8812E2B28838FBF3B
:1054C000DF91CF9108951F93CF93DF93282F30E082
:1054D000F901EC55FF4F8491F901E752FF4FD49148
:1054E000F901E25FFE4FC491CC23C9F0162F811160
:1054F0000E94FD29EC2FF0E0EE0FFF1FED5AFE4F4A
:10550000A591B4918FB7F894111105C09C91ED2F1E
:10551000E095E92302C0EC91ED2BEC938FBFDF9176
:10552000CF911F9108950F931F9390E0FC01E752D4
:10553000FF4F7491FC01E25FFE4FE491662311F08E
:10554000672F01C060E0F0E0EE0FFF1FED5BFE4F44
:105550008591949189019A013F70462F672F0E948F
:10556000EA00611571058105910549F0DC01CB0167
:105570000196A11DB11DBC01CD019F7003C060E06B
:1055800070E0CB011F910F910895FC01918D228D48
:10559000892F90E0805C9F4F821B91098F73992720
:1055A0000895FC01918D828D981731F0828DE80F5E
:1055B000F11D858D90E008958FEF9FEF0895FC0118
:1055C000918D828D981761F0828DDF01A80FB11D3A
:1055D0005D968C91928D9F5F9F73928F90E008955E
:1055E0008FEF9FEF089581E69CE2892B41F080E0E8
:1055F00090E0892B21F00E94612C81110DC080E088
:1056000090E0892B71F080E090E0892B51F00E94AE
:105610000000811104C008950E940000F0CF0C9496
:1056200000000895FC01848DDF01A80FB11DA35A6D
:10563000BF4F2C91848D90E001968F739927848FB2
:10564000A689B7892C93A089B1898C9180648C93A9
:10565000938D848D981306C00288F389E02D808194
:105660008F7D80830895CF93DF93EC01888D88230D
:10567000C9F0EA89FB89808185FD05C0A889B989BF
:105680008C9186FD0FC00FB607FCF5CF808185FF9A
:10569000F2CFA889B9898C9185FFEDCFCE010E9408
:1056A000122BE7CFDF91CF910895EF92FF920F93E6
:1056B0001F93CF93DF93EC0181E0888F9B8D8C8DBE
:1056C000981305C0E889F989808185FD24C0F62EEC
:1056D0000B8D10E00F5F1F4F0F731127E02E8C8D85
:1056E000E8120CC00FB607FCFACFE889F98980816F
:1056F00085FFF5CFCE010E94122BF1CF8B8DFE01DD
:10570000E80FF11DE35AFF4FF0820B8FEA89FB8906
:105710008081806207C0EE89FF896083E889F9890A
:1057200080818064808381E090E0DF91CF911F9140
:105730000F91FF90EF900895CF92DF92EF92FF923A
:105740001F93CF93DF93EC016A017B01122FE8894D
:10575000F98982E080834115514E61057105B1F0F0
:1057600060E079E08DE390E0A70196010E94473167
:10577000DA01C9010197A109B109B695A7959795D5
:105780008795AC01411580E15807A8F0E889F989AF
:10579000108260E874E88EE190E0A70196010E9413
:1057A0004731BA01A9014150510961097109769542
:1057B000679557954795EC85FD855083EE85FF8568
:1057C0004083188EEC89FD891083EA89FB898081EA
:1057D00080618083EA89FB89808188608083EA898F
:1057E000FB89808180688083EA89FB8980818F7D45
:1057F0008083DF91CF911F91FF90EF90DF90CF904A
:1058000008951F920F920FB60F9211240BB60F92AC
:105810002F938F939F93EF93FF93E091F20AF09170
:10582000F30A8081E091F80AF091F90A82FD12C032
:1058300090818091FB0A8F5F8F732091FC0A821701
:1058400051F0E091FB0AF0E0EE51F54F958F809317
:10585000FB0A01C08081FF91EF919F918F912F9161
:105860000F900BBE0F900FBE0F901F9018951F92B8
:105870000F920FB60F9211240BB60F922F933F93F6
:105880004F935F936F937F938F939F93AF93BF9348
:10589000EF93FF9382EE9AE00E94122BFF91EF911B
:1058A000BF91AF919F918F917F916F915F914F9138
:1058B0003F912F910F900BBE0F900FBE0F901F9036
:1058C000189582EE9AE00E94C52A21E0892B09F4FE
:1058D00020E0822F0895E2EEFAE01382128288EE31
:1058E00093E0A0E0B0E084839583A683B78388E249
:1058F00094E09183808380E990E09587848789E2B2
:1059000090E0978786878BE290E0918B808B8AE28C
:1059100090E0938B828B85E990E0958B848B8CE271
:1059200090E0978B868B118E128E138E148E0895B5
:10593000CF92DF92EF92FF920F931F93CF93DF935B
:105940006C017A018B01C0E0D0E0CE15DF0589F053
:10595000D8016D918D01D601ED91FC910190F081FE
:10596000E02DC6010995892B11F47E0102C0219614
:10597000ECCFC701DF91CF911F910F91FF90EF9076
:10598000DF90CF9008954F925F926F927F92AF9287
:10599000BF92CF92DF92EF92FF920F931F93CF931C
:1059A000DF93CDB7DEB729013A019B01AC01241981
:1059B00035094609570989899A89AB89BC89BC018F
:1059C000CD016A197B098C099D090E942331A80128
:1059D000970124193509460957090E946931CA01FE
:1059E000B9016A0D7B1D8C1D9D1DDF91CF911F910B
:1059F0000F91FF90EF90DF90CF90BF90AF907F908E
:105A00006F905F904F9008950895FC01808191817F
:105A10000C945432CF93DF93EC01888199810097E5
:105A200011F00E945432198218821D821C821B823E
:105A30001A82DF91CF9108950F931F93CF93DF9335
:105A4000EC018B016F5F7F4F888199810E94EC325E
:105A5000009731F0998388831B830A8381E001C01A
:105A600080E0DF91CF911F910F910895CF93DF9345
:105A7000EC0188819981892B29F08A819B81861785
:105A8000970760F4CE010E941C2D882341F08C8181
:105A90009D81892B19F4E881F981108281E0DF91E1
:105AA000CF910895EF92FF920F931F93CF93DF93BF
:105AB000EC017B018A01BA010E94362D811104C0DC
:105AC000CE010E940A2D07C01D830C83B701888177
:105AD00099810E942734CE01DF91CF911F910F91C0
